{
  "_format": "hh-sol-artifact-1",
  "contractName": "EquityToken",
  "sourceName": "contracts/EquityToken.sol",
  "abi": [
    {
      "inputs": [],
      "stateMutability": "nonpayable",
      "type": "constructor"
    },
    {
      "inputs": [
        {
          "internalType": "address",
          "name": "target",
          "type": "address"
        }
      ],
      "name": "AddressEmptyCode",
      "type": "error"
    },
    {
      "inputs": [
        {
          "internalType": "address",
          "name": "implementation",
          "type": "address"
        }
      ],
      "name": "ERC1967InvalidImplementation",
      "type": "error"
    },
    {
      "inputs": [],
      "name": "ERC1967NonPayable",
      "type": "error"
    },
    {
      "inputs": [
        {
          "internalType": "address",
          "name": "spender",
          "type": "address"
        },
        {
          "internalType": "uint256",
          "name": "allowance",
          "type": "uint256"
        },
        {
          "internalType": "uint256",
          "name": "needed",
          "type": "uint256"
        }
      ],
      "name": "ERC20InsufficientAllowance",
      "type": "error"
    },
    {
      "inputs": [
        {
          "internalType": "address",
          "name": "sender",
          "type": "address"
        },
        {
          "internalType": "uint256",
          "name": "balance",
          "type": "uint256"
        },
        {
          "internalType": "uint256",
          "name": "needed",
          "type": "uint256"
        }
      ],
      "name": "ERC20InsufficientBalance",
      "type": "error"
    },
    {
      "inputs": [
        {
          "internalType": "address",
          "name": "approver",
          "type": "address"
        }
      ],
      "name": "ERC20InvalidApprover",
      "type": "error"
    },
    {
      "inputs": [
        {
          "internalType": "address",
          "name": "receiver",
          "type": "address"
        }
      ],
      "name": "ERC20InvalidReceiver",
      "type": "error"
    },
    {
      "inputs": [
        {
          "internalType": "address",
          "name": "sender",
          "type": "address"
        }
      ],
      "name": "ERC20InvalidSender",
      "type": "error"
    },
    {
      "inputs": [
        {
          "internalType": "address",
          "name": "spender",
          "type": "address"
        }
      ],
      "name": "ERC20InvalidSpender",
      "type": "error"
    },
    {
      "inputs": [],
      "name": "FailedCall",
      "type": "error"
    },
    {
      "inputs": [],
      "name": "InvalidInitialization",
      "type": "error"
    },
    {
      "inputs": [],
      "name": "NotInitializing",
      "type": "error"
    },
    {
      "inputs": [
        {
          "internalType": "address",
          "name": "owner",
          "type": "address"
        }
      ],
      "name": "OwnableInvalidOwner",
      "type": "error"
    },
    {
      "inputs": [
        {
          "internalType": "address",
          "name": "account",
          "type": "address"
        }
      ],
      "name": "OwnableUnauthorizedAccount",
      "type": "error"
    },
    {
      "inputs": [],
      "name": "UUPSUnauthorizedCallContext",
      "type": "error"
    },
    {
      "inputs": [
        {
          "internalType": "bytes32",
          "name": "slot",
          "type": "bytes32"
        }
      ],
      "name": "UUPSUnsupportedProxiableUUID",
      "type": "error"
    },
    {
      "anonymous": false,
      "inputs": [
        {
          "indexed": true,
          "internalType": "address",
          "name": "owner",
          "type": "address"
        },
        {
          "indexed": true,
          "internalType": "address",
          "name": "spender",
          "type": "address"
        },
        {
          "indexed": false,
          "internalType": "uint256",
          "name": "value",
          "type": "uint256"
        }
      ],
      "name": "Approval",
      "type": "event"
    },
    {
      "anonymous": false,
      "inputs": [
        {
          "indexed": false,
          "internalType": "uint64",
          "name": "version",
          "type": "uint64"
        }
      ],
      "name": "Initialized",
      "type": "event"
    },
    {
      "anonymous": false,
      "inputs": [
        {
          "indexed": true,
          "internalType": "address",
          "name": "previousOwner",
          "type": "address"
        },
        {
          "indexed": true,
          "internalType": "address",
          "name": "newOwner",
          "type": "address"
        }
      ],
      "name": "OwnershipTransferred",
      "type": "event"
    },
    {
      "anonymous": false,
      "inputs": [
        {
          "indexed": true,
          "internalType": "address",
          "name": "from",
          "type": "address"
        },
        {
          "indexed": true,
          "internalType": "address",
          "name": "to",
          "type": "address"
        },
        {
          "indexed": false,
          "internalType": "uint256",
          "name": "value",
          "type": "uint256"
        }
      ],
      "name": "Transfer",
      "type": "event"
    },
    {
      "anonymous": false,
      "inputs": [
        {
          "indexed": true,
          "internalType": "address",
          "name": "implementation",
          "type": "address"
        }
      ],
      "name": "Upgraded",
      "type": "event"
    },
    {
      "inputs": [],
      "name": "UPGRADE_INTERFACE_VERSION",
      "outputs": [
        {
          "internalType": "string",
          "name": "",
          "type": "string"
        }
      ],
      "stateMutability": "view",
      "type": "function"
    },
    {
      "inputs": [
        {
          "internalType": "address",
          "name": "owner",
          "type": "address"
        },
        {
          "internalType": "address",
          "name": "spender",
          "type": "address"
        }
      ],
      "name": "allowance",
      "outputs": [
        {
          "internalType": "uint256",
          "name": "",
          "type": "uint256"
        }
      ],
      "stateMutability": "view",
      "type": "function"
    },
    {
      "inputs": [
        {
          "internalType": "address",
          "name": "spender",
          "type": "address"
        },
        {
          "internalType": "uint256",
          "name": "value",
          "type": "uint256"
        }
      ],
      "name": "approve",
      "outputs": [
        {
          "internalType": "bool",
          "name": "",
          "type": "bool"
        }
      ],
      "stateMutability": "nonpayable",
      "type": "function"
    },
    {
      "inputs": [
        {
          "internalType": "address",
          "name": "account",
          "type": "address"
        }
      ],
      "name": "balanceOf",
      "outputs": [
        {
          "internalType": "uint256",
          "name": "",
          "type": "uint256"
        }
      ],
      "stateMutability": "view",
      "type": "function"
    },
    {
      "inputs": [
        {
          "internalType": "uint256",
          "name": "epoch",
          "type": "uint256"
        }
      ],
      "name": "claimDividend",
      "outputs": [],
      "stateMutability": "nonpayable",
      "type": "function"
    },
    {
      "inputs": [],
      "name": "currentEpoch",
      "outputs": [
        {
          "internalType": "uint256",
          "name": "",
          "type": "uint256"
        }
      ],
      "stateMutability": "view",
      "type": "function"
    },
    {
      "inputs": [],
      "name": "decimals",
      "outputs": [
        {
          "internalType": "uint8",
          "name": "",
          "type": "uint8"
        }
      ],
      "stateMutability": "view",
      "type": "function"
    },
    {
      "inputs": [],
      "name": "distributeDividend",
      "outputs": [],
      "stateMutability": "nonpayable",
      "type": "function"
    },
    {
      "inputs": [
        {
          "internalType": "uint256",
          "name": "",
          "type": "uint256"
        }
      ],
      "name": "dividendPerShare",
      "outputs": [
        {
          "internalType": "uint256",
          "name": "",
          "type": "uint256"
        }
      ],
      "stateMutability": "view",
      "type": "function"
    },
    {
      "inputs": [
        {
          "internalType": "string",
          "name": "name",
          "type": "string"
        },
        {
          "internalType": "string",
          "name": "symbol",
          "type": "string"
        },
        {
          "internalType": "uint256",
          "name": "_totalShares",
          "type": "uint256"
        },
        {
          "internalType": "address",
          "name": "initialOwner",
          "type": "address"
        }
      ],
      "name": "initialize",
      "outputs": [],
      "stateMutability": "nonpayable",
      "type": "function"
    },
    {
      "inputs": [],
      "name": "name",
      "outputs": [
        {
          "internalType": "string",
          "name": "",
          "type": "string"
        }
      ],
      "stateMutability": "view",
      "type": "function"
    },
    {
      "inputs": [],
      "name": "owner",
      "outputs": [
        {
          "internalType": "address",
          "name": "",
          "type": "address"
        }
      ],
      "stateMutability": "view",
      "type": "function"
    },
    {
      "inputs": [],
      "name": "proxiableUUID",
      "outputs": [
        {
          "internalType": "bytes32",
          "name": "",
          "type": "bytes32"
        }
      ],
      "stateMutability": "view",
      "type": "function"
    },
    {
      "inputs": [],
      "name": "renounceOwnership",
      "outputs": [],
      "stateMutability": "nonpayable",
      "type": "function"
    },
    {
      "inputs": [],
      "name": "symbol",
      "outputs": [
        {
          "internalType": "string",
          "name": "",
          "type": "string"
        }
      ],
      "stateMutability": "view",
      "type": "function"
    },
    {
      "inputs": [],
      "name": "totalShares",
      "outputs": [
        {
          "internalType": "uint256",
          "name": "",
          "type": "uint256"
        }
      ],
      "stateMutability": "view",
      "type": "function"
    },
    {
      "inputs": [],
      "name": "totalSupply",
      "outputs": [
        {
          "internalType": "uint256",
          "name": "",
          "type": "uint256"
        }
      ],
      "stateMutability": "view",
      "type": "function"
    },
    {
      "inputs": [
        {
          "internalType": "address",
          "name": "to",
          "type": "address"
        },
        {
          "internalType": "uint256",
          "name": "value",
          "type": "uint256"
        }
      ],
      "name": "transfer",
      "outputs": [
        {
          "internalType": "bool",
          "name": "",
          "type": "bool"
        }
      ],
      "stateMutability": "nonpayable",
      "type": "function"
    },
    {
      "inputs": [
        {
          "internalType": "address",
          "name": "from",
          "type": "address"
        },
        {
          "internalType": "address",
          "name": "to",
          "type": "address"
        },
        {
          "internalType": "uint256",
          "name": "value",
          "type": "uint256"
        }
      ],
      "name": "transferFrom",
      "outputs": [
        {
          "internalType": "bool",
          "name": "",
          "type": "bool"
        }
      ],
      "stateMutability": "nonpayable",
      "type": "function"
    },
    {
      "inputs": [
        {
          "internalType": "address",
          "name": "newOwner",
          "type": "address"
        }
      ],
      "name": "transferOwnership",
      "outputs": [],
      "stateMutability": "nonpayable",
      "type": "function"
    },
    {
      "inputs": [
        {
          "internalType": "address",
          "name": "newImplementation",
          "type": "address"
        },
        {
          "internalType": "bytes",
          "name": "data",
          "type": "bytes"
        }
      ],
      "name": "upgradeToAndCall",
      "outputs": [],
      "stateMutability": "payable",
      "type": "function"
    }
  ],
  "bytecode": "0x60a06040523073ffffffffffffffffffffffffffffffffffffffff1660809073ffffffffffffffffffffffffffffffffffffffff1681525034801562000043575f80fd5b50620000546200005a60201b60201c565b620001e1565b5f6200006b6200015e60201b60201c565b9050805f0160089054906101000a900460ff1615620000b6576040517ff92ee8a900000000000000000000000000000000000000000000000000000000815260040160405180910390fd5b67ffffffffffffffff8016815f015f9054906101000a900467ffffffffffffffff1667ffffffffffffffff16146200015b5767ffffffffffffffff815f015f6101000a81548167ffffffffffffffff021916908367ffffffffffffffff1602179055507fc7f505b2f371ae2175ee4913f4499e1f2633a7b5936321eed1cdaeb6115181d267ffffffffffffffff604051620001529190620001c6565b60405180910390a15b50565b5f80620001706200017960201b60201c565b90508091505090565b5f7ff0c57e16840df040f15088dc2f81fe391c3923bec73e23a9662efc9c229c6a005f1b905090565b5f67ffffffffffffffff82169050919050565b620001c081620001a2565b82525050565b5f602082019050620001db5f830184620001b5565b92915050565b608051612623620002085f395f8181610c9901528181610cee0152610ea801526126235ff3fe608060405260043610610129575f3560e01c806376671808116100aa578063ad3cb1cc1161006e578063ad3cb1cc146103c7578063bd3a13f6146103f1578063dd62ed3e14610419578063e19d31b714610455578063f2fde38b14610491578063f6ef8f0a146104b957610129565b806376671808146102e55780638da5cb5b1461030f57806395d89b41146103395780639abd357214610363578063a9059cbb1461038b57610129565b80633a98ef39116100f15780633a98ef39146102235780634f1ef2861461024d57806352d1902d1461026957806370a0823114610293578063715018a6146102cf57610129565b806306fdde031461012d578063095ea7b31461015757806318160ddd1461019357806323b872dd146101bd578063313ce567146101f9575b5f80fd5b348015610138575f80fd5b506101416104cf565b60405161014e9190611a4c565b60405180910390f35b348015610162575f80fd5b5061017d60048036038101906101789190611b0a565b61056d565b60405161018a9190611b62565b60405180910390f35b34801561019e575f80fd5b506101a761058f565b6040516101b49190611b8a565b60405180910390f35b3480156101c8575f80fd5b506101e360048036038101906101de9190611ba3565b6105a6565b6040516101f09190611b62565b60405180910390f35b348015610204575f80fd5b5061020d6105d4565b60405161021a9190611c0e565b60405180910390f35b34801561022e575f80fd5b506102376105dc565b6040516102449190611b8a565b60405180910390f35b61026760048036038101906102629190611d53565b6105e1565b005b348015610274575f80fd5b5061027d610600565b60405161028a9190611dc5565b60405180910390f35b34801561029e575f80fd5b506102b960048036038101906102b49190611dde565b610631565b6040516102c69190611b8a565b60405180910390f35b3480156102da575f80fd5b506102e3610684565b005b3480156102f0575f80fd5b506102f9610697565b6040516103069190611b8a565b60405180910390f35b34801561031a575f80fd5b5061032361069d565b6040516103309190611e18565b60405180910390f35b348015610344575f80fd5b5061034d6106d2565b60405161035a9190611a4c565b60405180910390f35b34801561036e575f80fd5b5061038960048036038101906103849190611e31565b610770565b005b348015610396575f80fd5b506103b160048036038101906103ac9190611b0a565b610773565b6040516103be9190611b62565b60405180910390f35b3480156103d2575f80fd5b506103db610795565b6040516103e89190611a4c565b60405180910390f35b3480156103fc575f80fd5b5061041760048036038101906104129190611efa565b6107ce565b005b348015610424575f80fd5b5061043f600480360381019061043a9190611f96565b61098a565b60405161044c9190611b8a565b60405180910390f35b348015610460575f80fd5b5061047b60048036038101906104769190611e31565b610a1a565b6040516104889190611b8a565b60405180910390f35b34801561049c575f80fd5b506104b760048036038101906104b29190611dde565b610a2f565b005b3480156104c4575f80fd5b506104cd610ab3565b005b60605f6104da610ad4565b90508060030180546104eb90612001565b80601f016020809104026020016040519081016040528092919081815260200182805461051790612001565b80156105625780601f1061053957610100808354040283529160200191610562565b820191905f5260205f20905b81548152906001019060200180831161054557829003601f168201915b505050505091505090565b5f80610577610afb565b9050610584818585610b02565b600191505092915050565b5f80610599610ad4565b9050806002015491505090565b5f806105b0610afb565b90506105bd858285610b14565b6105c8858585610ba7565b60019150509392505050565b5f6012905090565b5f5481565b6105e9610c97565b6105f282610d7d565b6105fc8282610d88565b5050565b5f610609610ea6565b7f360894a13ba1a3210667c828492db98dca3e2076cc3735a920a3ca505d382bbc5f1b905090565b5f8061063b610ad4565b9050805f015f8473ffffffffffffffffffffffffffffffffffffffff1673ffffffffffffffffffffffffffffffffffffffff1681526020019081526020015f2054915050919050565b61068c610f2d565b6106955f610fb4565b565b60025481565b5f806106a7611085565b9050805f015f9054906101000a900473ffffffffffffffffffffffffffffffffffffffff1691505090565b60605f6106dd610ad4565b90508060040180546106ee90612001565b80601f016020809104026020016040519081016040528092919081815260200182805461071a90612001565b80156107655780601f1061073c57610100808354040283529160200191610765565b820191905f5260205f20905b81548152906001019060200180831161074857829003601f168201915b505050505091505090565b50565b5f8061077d610afb565b905061078a818585610ba7565b600191505092915050565b6040518060400160405280600581526020017f352e302e3000000000000000000000000000000000000000000000000000000081525081565b5f6107d76110ac565b90505f815f0160089054906101000a900460ff161590505f825f015f9054906101000a900467ffffffffffffffff1690505f808267ffffffffffffffff1614801561081f5750825b90505f60018367ffffffffffffffff1614801561085257505f3073ffffffffffffffffffffffffffffffffffffffff163b145b905081158015610860575080155b15610897576040517ff92ee8a900000000000000000000000000000000000000000000000000000000815260040160405180910390fd5b6001855f015f6101000a81548167ffffffffffffffff021916908367ffffffffffffffff16021790555083156108e4576001855f0160086101000a81548160ff0219169083151502179055505b6108ee89896110bf565b6108f7866110d5565b865f81905550610925866109096105d4565b600a610915919061218d565b8961092091906121d7565b6110e9565b831561097f575f855f0160086101000a81548160ff0219169083151502179055507fc7f505b2f371ae2175ee4913f4499e1f2633a7b5936321eed1cdaeb6115181d26001604051610976919061226d565b60405180910390a15b505050505050505050565b5f80610994610ad4565b9050806001015f8573ffffffffffffffffffffffffffffffffffffffff1673ffffffffffffffffffffffffffffffffffffffff1681526020019081526020015f205f8473ffffffffffffffffffffffffffffffffffffffff1673ffffffffffffffffffffffffffffffffffffffff1681526020019081526020015f205491505092915050565b6001602052805f5260405f205f915090505481565b610a37610f2d565b5f73ffffffffffffffffffffffffffffffffffffffff168173ffffffffffffffffffffffffffffffffffffffff1603610aa7575f6040517f1e4fbdf7000000000000000000000000000000000000000000000000000000008152600401610a9e9190611e18565b60405180910390fd5b610ab081610fb4565b50565b610abb610f2d565b60025f815480929190610acd90612286565b9190505550565b5f7f52c63247e1f47db19d5ce0460030c497f067ca4cebf71ba98eeadabe20bace00905090565b5f33905090565b610b0f8383836001611168565b505050565b5f610b1f848461098a565b90507fffffffffffffffffffffffffffffffffffffffffffffffffffffffffffffffff811015610ba15781811015610b92578281836040517ffb8f41b2000000000000000000000000000000000000000000000000000000008152600401610b89939291906122cd565b60405180910390fd5b610ba084848484035f611168565b5b50505050565b5f73ffffffffffffffffffffffffffffffffffffffff168373ffffffffffffffffffffffffffffffffffffffff1603610c17575f6040517f96c6fd1e000000000000000000000000000000000000000000000000000000008152600401610c0e9190611e18565b60405180910390fd5b5f73ffffffffffffffffffffffffffffffffffffffff168273ffffffffffffffffffffffffffffffffffffffff1603610c87575f6040517fec442f05000000000000000000000000000000000000000000000000000000008152600401610c7e9190611e18565b60405180910390fd5b610c92838383611345565b505050565b7f000000000000000000000000000000000000000000000000000000000000000073ffffffffffffffffffffffffffffffffffffffff163073ffffffffffffffffffffffffffffffffffffffff161480610d4457507f000000000000000000000000000000000000000000000000000000000000000073ffffffffffffffffffffffffffffffffffffffff16610d2b611574565b73ffffffffffffffffffffffffffffffffffffffff1614155b15610d7b576040517fe07c8dba00000000000000000000000000000000000000000000000000000000815260040160405180910390fd5b565b610d85610f2d565b50565b8173ffffffffffffffffffffffffffffffffffffffff166352d1902d6040518163ffffffff1660e01b8152600401602060405180830381865afa925050508015610df057506040513d601f19601f82011682018060405250810190610ded919061232c565b60015b610e3157816040517f4c9c8ce3000000000000000000000000000000000000000000000000000000008152600401610e289190611e18565b60405180910390fd5b7f360894a13ba1a3210667c828492db98dca3e2076cc3735a920a3ca505d382bbc5f1b8114610e9757806040517faa1d49a4000000000000000000000000000000000000000000000000000000008152600401610e8e9190611dc5565b60405180910390fd5b610ea183836115c7565b505050565b7f000000000000000000000000000000000000000000000000000000000000000073ffffffffffffffffffffffffffffffffffffffff163073ffffffffffffffffffffffffffffffffffffffff1614610f2b576040517fe07c8dba00000000000000000000000000000000000000000000000000000000815260040160405180910390fd5b565b610f35610afb565b73ffffffffffffffffffffffffffffffffffffffff16610f5361069d565b73ffffffffffffffffffffffffffffffffffffffff1614610fb257610f76610afb565b6040517f118cdaa7000000000000000000000000000000000000000000000000000000008152600401610fa99190611e18565b60405180910390fd5b565b5f610fbd611085565b90505f815f015f9054906101000a900473ffffffffffffffffffffffffffffffffffffffff16905082825f015f6101000a81548173ffffffffffffffffffffffffffffffffffffffff021916908373ffffffffffffffffffffffffffffffffffffffff1602179055508273ffffffffffffffffffffffffffffffffffffffff168173ffffffffffffffffffffffffffffffffffffffff167f8be0079c531659141344cd1fd0a4f28419497f9722a3daafe3b4186f6b6457e060405160405180910390a3505050565b5f7f9016d09d72d40fdae2fd8ceac6b6234c7706214fd39c1cd1e609a0528c199300905090565b5f806110b6611639565b90508091505090565b6110c7611662565b6110d182826116a2565b5050565b6110dd611662565b6110e6816116de565b50565b5f73ffffffffffffffffffffffffffffffffffffffff168273ffffffffffffffffffffffffffffffffffffffff1603611159575f6040517fec442f050000000000000000000000000000000000000000000000000000000081526004016111509190611e18565b60405180910390fd5b6111645f8383611345565b5050565b5f611171610ad4565b90505f73ffffffffffffffffffffffffffffffffffffffff168573ffffffffffffffffffffffffffffffffffffffff16036111e3575f6040517fe602df050000000000000000000000000000000000000000000000000000000081526004016111da9190611e18565b60405180910390fd5b5f73ffffffffffffffffffffffffffffffffffffffff168473ffffffffffffffffffffffffffffffffffffffff1603611253575f6040517f94280d6200000000000000000000000000000000000000000000000000000000815260040161124a9190611e18565b60405180910390fd5b82816001015f8773ffffffffffffffffffffffffffffffffffffffff1673ffffffffffffffffffffffffffffffffffffffff1681526020019081526020015f205f8673ffffffffffffffffffffffffffffffffffffffff1673ffffffffffffffffffffffffffffffffffffffff1681526020019081526020015f2081905550811561133e578373ffffffffffffffffffffffffffffffffffffffff168573ffffffffffffffffffffffffffffffffffffffff167f8c5be1e5ebec7d5bd14f71427d1e84f3dd0314c0f7b2291e5b200ac8c7c3b925856040516113359190611b8a565b60405180910390a35b5050505050565b5f61134e610ad4565b90505f73ffffffffffffffffffffffffffffffffffffffff168473ffffffffffffffffffffffffffffffffffffffff16036113a25781816002015f8282546113969190612357565b92505081905550611474565b5f815f015f8673ffffffffffffffffffffffffffffffffffffffff1673ffffffffffffffffffffffffffffffffffffffff1681526020019081526020015f205490508281101561142d578481846040517fe450d38c000000000000000000000000000000000000000000000000000000008152600401611424939291906122cd565b60405180910390fd5b828103825f015f8773ffffffffffffffffffffffffffffffffffffffff1673ffffffffffffffffffffffffffffffffffffffff1681526020019081526020015f2081905550505b5f73ffffffffffffffffffffffffffffffffffffffff168373ffffffffffffffffffffffffffffffffffffffff16036114bd5781816002015f8282540392505081905550611509565b81815f015f8573ffffffffffffffffffffffffffffffffffffffff1673ffffffffffffffffffffffffffffffffffffffff1681526020019081526020015f205f82825401925050819055505b8273ffffffffffffffffffffffffffffffffffffffff168473ffffffffffffffffffffffffffffffffffffffff167fddf252ad1be2c89b69c2b068fc378daa952ba7f163c4a11628f55a4df523b3ef846040516115669190611b8a565b60405180910390a350505050565b5f6115a07f360894a13ba1a3210667c828492db98dca3e2076cc3735a920a3ca505d382bbc5f1b611762565b5f015f9054906101000a900473ffffffffffffffffffffffffffffffffffffffff16905090565b6115d08261176b565b8173ffffffffffffffffffffffffffffffffffffffff167fbc7cd75a20ee27fd9adebab32041f755214dbc6bffa90cc0225b39da2e5c2d3b60405160405180910390a25f8151111561162c576116268282611834565b50611635565b611634611925565b5b5050565b5f7ff0c57e16840df040f15088dc2f81fe391c3923bec73e23a9662efc9c229c6a005f1b905090565b61166a611961565b6116a0576040517fd7e6bcf800000000000000000000000000000000000000000000000000000000815260040160405180910390fd5b565b6116aa611662565b5f6116b3610ad4565b9050828160030190816116c6919061251e565b50818160040190816116d8919061251e565b50505050565b6116e6611662565b5f73ffffffffffffffffffffffffffffffffffffffff168173ffffffffffffffffffffffffffffffffffffffff1603611756575f6040517f1e4fbdf700000000000000000000000000000000000000000000000000000000815260040161174d9190611e18565b60405180910390fd5b61175f81610fb4565b50565b5f819050919050565b5f8173ffffffffffffffffffffffffffffffffffffffff163b036117c657806040517f4c9c8ce30000000000000000000000000000000000000000000000000000000081526004016117bd9190611e18565b60405180910390fd5b806117f27f360894a13ba1a3210667c828492db98dca3e2076cc3735a920a3ca505d382bbc5f1b611762565b5f015f6101000a81548173ffffffffffffffffffffffffffffffffffffffff021916908373ffffffffffffffffffffffffffffffffffffffff16021790555050565b60605f611841848461197f565b905080801561187757505f611854611993565b118061187657505f8473ffffffffffffffffffffffffffffffffffffffff163b115b5b1561188c5761188461199a565b91505061191f565b80156118cf57836040517f9996b3150000000000000000000000000000000000000000000000000000000081526004016118c69190611e18565b60405180910390fd5b5f6118d8611993565b11156118eb576118e66119b7565b61191d565b6040517fd6bda27500000000000000000000000000000000000000000000000000000000815260040160405180910390fd5b505b92915050565b5f34111561195f576040517fb398979f00000000000000000000000000000000000000000000000000000000815260040160405180910390fd5b565b5f61196a6110ac565b5f0160089054906101000a900460ff16905090565b5f805f835160208501865af4905092915050565b5f3d905090565b606060405190503d81523d5f602083013e3d602001810160405290565b6040513d5f823e3d81fd5b5f81519050919050565b5f82825260208201905092915050565b5f5b838110156119f95780820151818401526020810190506119de565b5f8484015250505050565b5f601f19601f8301169050919050565b5f611a1e826119c2565b611a2881856119cc565b9350611a388185602086016119dc565b611a4181611a04565b840191505092915050565b5f6020820190508181035f830152611a648184611a14565b905092915050565b5f604051905090565b5f80fd5b5f80fd5b5f73ffffffffffffffffffffffffffffffffffffffff82169050919050565b5f611aa682611a7d565b9050919050565b611ab681611a9c565b8114611ac0575f80fd5b50565b5f81359050611ad181611aad565b92915050565b5f819050919050565b611ae981611ad7565b8114611af3575f80fd5b50565b5f81359050611b0481611ae0565b92915050565b5f8060408385031215611b2057611b1f611a75565b5b5f611b2d85828601611ac3565b9250506020611b3e85828601611af6565b9150509250929050565b5f8115159050919050565b611b5c81611b48565b82525050565b5f602082019050611b755f830184611b53565b92915050565b611b8481611ad7565b82525050565b5f602082019050611b9d5f830184611b7b565b92915050565b5f805f60608486031215611bba57611bb9611a75565b5b5f611bc786828701611ac3565b9350506020611bd886828701611ac3565b9250506040611be986828701611af6565b9150509250925092565b5f60ff82169050919050565b611c0881611bf3565b82525050565b5f602082019050611c215f830184611bff565b92915050565b5f80fd5b5f80fd5b7f4e487b71000000000000000000000000000000000000000000000000000000005f52604160045260245ffd5b611c6582611a04565b810181811067ffffffffffffffff82111715611c8457611c83611c2f565b5b80604052505050565b5f611c96611a6c565b9050611ca28282611c5c565b919050565b5f67ffffffffffffffff821115611cc157611cc0611c2f565b5b611cca82611a04565b9050602081019050919050565b828183375f83830152505050565b5f611cf7611cf284611ca7565b611c8d565b905082815260208101848484011115611d1357611d12611c2b565b5b611d1e848285611cd7565b509392505050565b5f82601f830112611d3a57611d39611c27565b5b8135611d4a848260208601611ce5565b91505092915050565b5f8060408385031215611d6957611d68611a75565b5b5f611d7685828601611ac3565b925050602083013567ffffffffffffffff811115611d9757611d96611a79565b5b611da385828601611d26565b9150509250929050565b5f819050919050565b611dbf81611dad565b82525050565b5f602082019050611dd85f830184611db6565b92915050565b5f60208284031215611df357611df2611a75565b5b5f611e0084828501611ac3565b91505092915050565b611e1281611a9c565b82525050565b5f602082019050611e2b5f830184611e09565b92915050565b5f60208284031215611e4657611e45611a75565b5b5f611e5384828501611af6565b91505092915050565b5f67ffffffffffffffff821115611e7657611e75611c2f565b5b611e7f82611a04565b9050602081019050919050565b5f611e9e611e9984611e5c565b611c8d565b905082815260208101848484011115611eba57611eb9611c2b565b5b611ec5848285611cd7565b509392505050565b5f82601f830112611ee157611ee0611c27565b5b8135611ef1848260208601611e8c565b91505092915050565b5f805f8060808587031215611f1257611f11611a75565b5b5f85013567ffffffffffffffff811115611f2f57611f2e611a79565b5b611f3b87828801611ecd565b945050602085013567ffffffffffffffff811115611f5c57611f5b611a79565b5b611f6887828801611ecd565b9350506040611f7987828801611af6565b9250506060611f8a87828801611ac3565b91505092959194509250565b5f8060408385031215611fac57611fab611a75565b5b5f611fb985828601611ac3565b9250506020611fca85828601611ac3565b9150509250929050565b7f4e487b71000000000000000000000000000000000000000000000000000000005f52602260045260245ffd5b5f600282049050600182168061201857607f821691505b60208210810361202b5761202a611fd4565b5b50919050565b7f4e487b71000000000000000000000000000000000000000000000000000000005f52601160045260245ffd5b5f8160011c9050919050565b5f808291508390505b60018511156120b35780860481111561208f5761208e612031565b5b600185161561209e5780820291505b80810290506120ac8561205e565b9450612073565b94509492505050565b5f826120cb5760019050612186565b816120d8575f9050612186565b81600181146120ee57600281146120f857612127565b6001915050612186565b60ff84111561210a57612109612031565b5b8360020a91508482111561212157612120612031565b5b50612186565b5060208310610133831016604e8410600b841016171561215c5782820a90508381111561215757612156612031565b5b612186565b612169848484600161206a565b925090508184048111156121805761217f612031565b5b81810290505b9392505050565b5f61219782611ad7565b91506121a283611bf3565b92506121cf7fffffffffffffffffffffffffffffffffffffffffffffffffffffffffffffffff84846120bc565b905092915050565b5f6121e182611ad7565b91506121ec83611ad7565b92508282026121fa81611ad7565b9150828204841483151761221157612210612031565b5b5092915050565b5f819050919050565b5f67ffffffffffffffff82169050919050565b5f819050919050565b5f61225761225261224d84612218565b612234565b612221565b9050919050565b6122678161223d565b82525050565b5f6020820190506122805f83018461225e565b92915050565b5f61229082611ad7565b91507fffffffffffffffffffffffffffffffffffffffffffffffffffffffffffffffff82036122c2576122c1612031565b5b600182019050919050565b5f6060820190506122e05f830186611e09565b6122ed6020830185611b7b565b6122fa6040830184611b7b565b949350505050565b61230b81611dad565b8114612315575f80fd5b50565b5f8151905061232681612302565b92915050565b5f6020828403121561234157612340611a75565b5b5f61234e84828501612318565b91505092915050565b5f61236182611ad7565b915061236c83611ad7565b925082820190508082111561238457612383612031565b5b92915050565b5f819050815f5260205f209050919050565b5f6020601f8301049050919050565b5f82821b905092915050565b5f600883026123e67fffffffffffffffffffffffffffffffffffffffffffffffffffffffffffffffff826123ab565b6123f086836123ab565b95508019841693508086168417925050509392505050565b5f61242261241d61241884611ad7565b612234565b611ad7565b9050919050565b5f819050919050565b61243b83612408565b61244f61244782612429565b8484546123b7565b825550505050565b5f90565b612463612457565b61246e818484612432565b505050565b5b81811015612491576124865f8261245b565b600181019050612474565b5050565b601f8211156124d6576124a78161238a565b6124b08461239c565b810160208510156124bf578190505b6124d36124cb8561239c565b830182612473565b50505b505050565b5f82821c905092915050565b5f6124f65f19846008026124db565b1980831691505092915050565b5f61250e83836124e7565b9150826002028217905092915050565b612527826119c2565b67ffffffffffffffff8111156125405761253f611c2f565b5b61254a8254612001565b612555828285612495565b5f60209050601f831160018114612586575f8415612574578287015190505b61257e8582612503565b8655506125e5565b601f1984166125948661238a565b5f5b828110156125bb57848901518255600182019150602085019450602081019050612596565b868310156125d857848901516125d4601f8916826124e7565b8355505b6001600288020188555050505b50505050505056fea2646970667358221220788ccab74873f468b11584827a1d4084c743c952bf7a47eaddbeeceb4ee9749c64736f6c63430008180033",
  "linkReferences": {},
  "deployedLinkReferences": {}
}