{
  "_format": "hh-sol-artifact-1",
  "contractName": "BondToken",
  "sourceName": "contracts/BondToken.sol",
  "abi": [
    {
      "inputs": [],
      "stateMutability": "nonpayable",
      "type": "constructor"
    },
    {
      "inputs": [
        {
          "internalType": "address",
          "name": "target",
          "type": "address"
        }
      ],
      "name": "AddressEmptyCode",
      "type": "error"
    },
    {
      "inputs": [
        {
          "internalType": "address",
          "name": "implementation",
          "type": "address"
        }
      ],
      "name": "ERC1967InvalidImplementation",
      "type": "error"
    },
    {
      "inputs": [],
      "name": "ERC1967NonPayable",
      "type": "error"
    },
    {
      "inputs": [
        {
          "internalType": "address",
          "name": "spender",
          "type": "address"
        },
        {
          "internalType": "uint256",
          "name": "allowance",
          "type": "uint256"
        },
        {
          "internalType": "uint256",
          "name": "needed",
          "type": "uint256"
        }
      ],
      "name": "ERC20InsufficientAllowance",
      "type": "error"
    },
    {
      "inputs": [
        {
          "internalType": "address",
          "name": "sender",
          "type": "address"
        },
        {
          "internalType": "uint256",
          "name": "balance",
          "type": "uint256"
        },
        {
          "internalType": "uint256",
          "name": "needed",
          "type": "uint256"
        }
      ],
      "name": "ERC20InsufficientBalance",
      "type": "error"
    },
    {
      "inputs": [
        {
          "internalType": "address",
          "name": "approver",
          "type": "address"
        }
      ],
      "name": "ERC20InvalidApprover",
      "type": "error"
    },
    {
      "inputs": [
        {
          "internalType": "address",
          "name": "receiver",
          "type": "address"
        }
      ],
      "name": "ERC20InvalidReceiver",
      "type": "error"
    },
    {
      "inputs": [
        {
          "internalType": "address",
          "name": "sender",
          "type": "address"
        }
      ],
      "name": "ERC20InvalidSender",
      "type": "error"
    },
    {
      "inputs": [
        {
          "internalType": "address",
          "name": "spender",
          "type": "address"
        }
      ],
      "name": "ERC20InvalidSpender",
      "type": "error"
    },
    {
      "inputs": [],
      "name": "FailedCall",
      "type": "error"
    },
    {
      "inputs": [],
      "name": "InvalidInitialization",
      "type": "error"
    },
    {
      "inputs": [],
      "name": "NotInitializing",
      "type": "error"
    },
    {
      "inputs": [
        {
          "internalType": "address",
          "name": "owner",
          "type": "address"
        }
      ],
      "name": "OwnableInvalidOwner",
      "type": "error"
    },
    {
      "inputs": [
        {
          "internalType": "address",
          "name": "account",
          "type": "address"
        }
      ],
      "name": "OwnableUnauthorizedAccount",
      "type": "error"
    },
    {
      "inputs": [],
      "name": "UUPSUnauthorizedCallContext",
      "type": "error"
    },
    {
      "inputs": [
        {
          "internalType": "bytes32",
          "name": "slot",
          "type": "bytes32"
        }
      ],
      "name": "UUPSUnsupportedProxiableUUID",
      "type": "error"
    },
    {
      "anonymous": false,
      "inputs": [
        {
          "indexed": true,
          "internalType": "address",
          "name": "owner",
          "type": "address"
        },
        {
          "indexed": true,
          "internalType": "address",
          "name": "spender",
          "type": "address"
        },
        {
          "indexed": false,
          "internalType": "uint256",
          "name": "value",
          "type": "uint256"
        }
      ],
      "name": "Approval",
      "type": "event"
    },
    {
      "anonymous": false,
      "inputs": [
        {
          "indexed": false,
          "internalType": "uint64",
          "name": "version",
          "type": "uint64"
        }
      ],
      "name": "Initialized",
      "type": "event"
    },
    {
      "anonymous": false,
      "inputs": [
        {
          "indexed": true,
          "internalType": "address",
          "name": "previousOwner",
          "type": "address"
        },
        {
          "indexed": true,
          "internalType": "address",
          "name": "newOwner",
          "type": "address"
        }
      ],
      "name": "OwnershipTransferred",
      "type": "event"
    },
    {
      "anonymous": false,
      "inputs": [
        {
          "indexed": true,
          "internalType": "address",
          "name": "from",
          "type": "address"
        },
        {
          "indexed": true,
          "internalType": "address",
          "name": "to",
          "type": "address"
        },
        {
          "indexed": false,
          "internalType": "uint256",
          "name": "value",
          "type": "uint256"
        }
      ],
      "name": "Transfer",
      "type": "event"
    },
    {
      "anonymous": false,
      "inputs": [
        {
          "indexed": true,
          "internalType": "address",
          "name": "implementation",
          "type": "address"
        }
      ],
      "name": "Upgraded",
      "type": "event"
    },
    {
      "inputs": [],
      "name": "UPGRADE_INTERFACE_VERSION",
      "outputs": [
        {
          "internalType": "string",
          "name": "",
          "type": "string"
        }
      ],
      "stateMutability": "view",
      "type": "function"
    },
    {
      "inputs": [
        {
          "internalType": "address",
          "name": "owner",
          "type": "address"
        },
        {
          "internalType": "address",
          "name": "spender",
          "type": "address"
        }
      ],
      "name": "allowance",
      "outputs": [
        {
          "internalType": "uint256",
          "name": "",
          "type": "uint256"
        }
      ],
      "stateMutability": "view",
      "type": "function"
    },
    {
      "inputs": [
        {
          "internalType": "address",
          "name": "spender",
          "type": "address"
        },
        {
          "internalType": "uint256",
          "name": "value",
          "type": "uint256"
        }
      ],
      "name": "approve",
      "outputs": [
        {
          "internalType": "bool",
          "name": "",
          "type": "bool"
        }
      ],
      "stateMutability": "nonpayable",
      "type": "function"
    },
    {
      "inputs": [
        {
          "internalType": "address",
          "name": "account",
          "type": "address"
        }
      ],
      "name": "balanceOf",
      "outputs": [
        {
          "internalType": "uint256",
          "name": "",
          "type": "uint256"
        }
      ],
      "stateMutability": "view",
      "type": "function"
    },
    {
      "inputs": [],
      "name": "couponFrequency",
      "outputs": [
        {
          "internalType": "uint256",
          "name": "",
          "type": "uint256"
        }
      ],
      "stateMutability": "view",
      "type": "function"
    },
    {
      "inputs": [],
      "name": "couponRate",
      "outputs": [
        {
          "internalType": "uint256",
          "name": "",
          "type": "uint256"
        }
      ],
      "stateMutability": "view",
      "type": "function"
    },
    {
      "inputs": [],
      "name": "decimals",
      "outputs": [
        {
          "internalType": "uint8",
          "name": "",
          "type": "uint8"
        }
      ],
      "stateMutability": "view",
      "type": "function"
    },
    {
      "inputs": [],
      "name": "faceValue",
      "outputs": [
        {
          "internalType": "uint256",
          "name": "",
          "type": "uint256"
        }
      ],
      "stateMutability": "view",
      "type": "function"
    },
    {
      "inputs": [
        {
          "internalType": "string",
          "name": "name",
          "type": "string"
        },
        {
          "internalType": "string",
          "name": "symbol",
          "type": "string"
        },
        {
          "internalType": "uint256",
          "name": "_faceValue",
          "type": "uint256"
        },
        {
          "internalType": "uint256",
          "name": "_couponRate",
          "type": "uint256"
        },
        {
          "internalType": "uint256",
          "name": "_maturityDate",
          "type": "uint256"
        },
        {
          "internalType": "uint256",
          "name": "_couponFrequency",
          "type": "uint256"
        },
        {
          "internalType": "address",
          "name": "initialOwner",
          "type": "address"
        }
      ],
      "name": "initialize",
      "outputs": [],
      "stateMutability": "nonpayable",
      "type": "function"
    },
    {
      "inputs": [],
      "name": "maturityDate",
      "outputs": [
        {
          "internalType": "uint256",
          "name": "",
          "type": "uint256"
        }
      ],
      "stateMutability": "view",
      "type": "function"
    },
    {
      "inputs": [],
      "name": "name",
      "outputs": [
        {
          "internalType": "string",
          "name": "",
          "type": "string"
        }
      ],
      "stateMutability": "view",
      "type": "function"
    },
    {
      "inputs": [],
      "name": "owner",
      "outputs": [
        {
          "internalType": "address",
          "name": "",
          "type": "address"
        }
      ],
      "stateMutability": "view",
      "type": "function"
    },
    {
      "inputs": [],
      "name": "payCoupon",
      "outputs": [],
      "stateMutability": "nonpayable",
      "type": "function"
    },
    {
      "inputs": [],
      "name": "proxiableUUID",
      "outputs": [
        {
          "internalType": "bytes32",
          "name": "",
          "type": "bytes32"
        }
      ],
      "stateMutability": "view",
      "type": "function"
    },
    {
      "inputs": [],
      "name": "redeem",
      "outputs": [],
      "stateMutability": "nonpayable",
      "type": "function"
    },
    {
      "inputs": [],
      "name": "renounceOwnership",
      "outputs": [],
      "stateMutability": "nonpayable",
      "type": "function"
    },
    {
      "inputs": [],
      "name": "symbol",
      "outputs": [
        {
          "internalType": "string",
          "name": "",
          "type": "string"
        }
      ],
      "stateMutability": "view",
      "type": "function"
    },
    {
      "inputs": [],
      "name": "totalSupply",
      "outputs": [
        {
          "internalType": "uint256",
          "name": "",
          "type": "uint256"
        }
      ],
      "stateMutability": "view",
      "type": "function"
    },
    {
      "inputs": [
        {
          "internalType": "address",
          "name": "to",
          "type": "address"
        },
        {
          "internalType": "uint256",
          "name": "value",
          "type": "uint256"
        }
      ],
      "name": "transfer",
      "outputs": [
        {
          "internalType": "bool",
          "name": "",
          "type": "bool"
        }
      ],
      "stateMutability": "nonpayable",
      "type": "function"
    },
    {
      "inputs": [
        {
          "internalType": "address",
          "name": "from",
          "type": "address"
        },
        {
          "internalType": "address",
          "name": "to",
          "type": "address"
        },
        {
          "internalType": "uint256",
          "name": "value",
          "type": "uint256"
        }
      ],
      "name": "transferFrom",
      "outputs": [
        {
          "internalType": "bool",
          "name": "",
          "type": "bool"
        }
      ],
      "stateMutability": "nonpayable",
      "type": "function"
    },
    {
      "inputs": [
        {
          "internalType": "address",
          "name": "newOwner",
          "type": "address"
        }
      ],
      "name": "transferOwnership",
      "outputs": [],
      "stateMutability": "nonpayable",
      "type": "function"
    },
    {
      "inputs": [
        {
          "internalType": "address",
          "name": "newImplementation",
          "type": "address"
        },
        {
          "internalType": "bytes",
          "name": "data",
          "type": "bytes"
        }
      ],
      "name": "upgradeToAndCall",
      "outputs": [],
      "stateMutability": "payable",
      "type": "function"
    }
  ],
  "bytecode": "0x60a06040523073ffffffffffffffffffffffffffffffffffffffff1660809073ffffffffffffffffffffffffffffffffffffffff1681525034801562000043575f80fd5b50620000546200005a60201b60201c565b620001e1565b5f6200006b6200015e60201b60201c565b9050805f0160089054906101000a900460ff1615620000b6576040517ff92ee8a900000000000000000000000000000000000000000000000000000000815260040160405180910390fd5b67ffffffffffffffff8016815f015f9054906101000a900467ffffffffffffffff1667ffffffffffffffff16146200015b5767ffffffffffffffff815f015f6101000a81548167ffffffffffffffff021916908367ffffffffffffffff1602179055507fc7f505b2f371ae2175ee4913f4499e1f2633a7b5936321eed1cdaeb6115181d267ffffffffffffffff604051620001529190620001c6565b60405180910390a15b50565b5f80620001706200017960201b60201c565b90508091505090565b5f7ff0c57e16840df040f15088dc2f81fe391c3923bec73e23a9662efc9c229c6a005f1b905090565b5f67ffffffffffffffff82169050919050565b620001c081620001a2565b82525050565b5f602082019050620001db5f830184620001b5565b92915050565b608051612436620002085f395f8181610cb601528181610d0b0152610ec501526124365ff3fe608060405260043610610134575f3560e01c80638da5cb5b116100aa578063b7f82a291161006e578063b7f82a29146103fc578063be040fb014610412578063c0bcb26f14610428578063d59624b414610452578063dd62ed3e1461047c578063f2fde38b146104b857610134565b80638da5cb5b1461031a57806395d89b4114610344578063a6e57d991461036e578063a9059cbb14610396578063ad3cb1cc146103d257610134565b806344fd9caa116100fc57806344fd9caa1461022e5780634f1ef2861461025857806352d1902d146102745780635eb0b3d01461029e57806370a08231146102c8578063715018a61461030457610134565b806306fdde0314610138578063095ea7b31461016257806318160ddd1461019e57806323b872dd146101c8578063313ce56714610204575b5f80fd5b348015610143575f80fd5b5061014c6104e0565b60405161015991906119ea565b60405180910390f35b34801561016d575f80fd5b5061018860048036038101906101839190611aa8565b61057e565b6040516101959190611b00565b60405180910390f35b3480156101a9575f80fd5b506101b26105a0565b6040516101bf9190611b28565b60405180910390f35b3480156101d3575f80fd5b506101ee60048036038101906101e99190611b41565b6105b7565b6040516101fb9190611b00565b60405180910390f35b34801561020f575f80fd5b506102186105e5565b6040516102259190611bac565b60405180910390f35b348015610239575f80fd5b506102426105ed565b60405161024f9190611b28565b60405180910390f35b610272600480360381019061026d9190611cf1565b6105f2565b005b34801561027f575f80fd5b50610288610611565b6040516102959190611d63565b60405180910390f35b3480156102a9575f80fd5b506102b2610642565b6040516102bf9190611b28565b60405180910390f35b3480156102d3575f80fd5b506102ee60048036038101906102e99190611d7c565b610648565b6040516102fb9190611b28565b60405180910390f35b34801561030f575f80fd5b5061031861069b565b005b348015610325575f80fd5b5061032e6106ae565b60405161033b9190611db6565b60405180910390f35b34801561034f575f80fd5b506103586106e3565b60405161036591906119ea565b60405180910390f35b348015610379575f80fd5b50610394600480360381019061038f9190611e6d565b610781565b005b3480156103a1575f80fd5b506103bc60048036038101906103b79190611aa8565b61092d565b6040516103c99190611b00565b60405180910390f35b3480156103dd575f80fd5b506103e661094f565b6040516103f391906119ea565b60405180910390f35b348015610407575f80fd5b50610410610988565b005b34801561041d575f80fd5b5061042661098a565b005b348015610433575f80fd5b5061043c6109d1565b6040516104499190611b28565b60405180910390f35b34801561045d575f80fd5b506104666109d7565b6040516104739190611b28565b60405180910390f35b348015610487575f80fd5b506104a2600480360381019061049d9190611f42565b6109dd565b6040516104af9190611b28565b60405180910390f35b3480156104c3575f80fd5b506104de60048036038101906104d99190611d7c565b610a6d565b005b60605f6104eb610af1565b90508060030180546104fc90611fad565b80601f016020809104026020016040519081016040528092919081815260200182805461052890611fad565b80156105735780601f1061054a57610100808354040283529160200191610573565b820191905f5260205f20905b81548152906001019060200180831161055657829003601f168201915b505050505091505090565b5f80610588610b18565b9050610595818585610b1f565b600191505092915050565b5f806105aa610af1565b9050806002015491505090565b5f806105c1610b18565b90506105ce858285610b31565b6105d9858585610bc4565b60019150509392505050565b5f6012905090565b5f5481565b6105fa610cb4565b61060382610d9a565b61060d8282610da5565b5050565b5f61061a610ec3565b7f360894a13ba1a3210667c828492db98dca3e2076cc3735a920a3ca505d382bbc5f1b905090565b60035481565b5f80610652610af1565b9050805f015f8473ffffffffffffffffffffffffffffffffffffffff1673ffffffffffffffffffffffffffffffffffffffff1681526020019081526020015f2054915050919050565b6106a3610f4a565b6106ac5f610fd1565b565b5f806106b86110a2565b9050805f015f9054906101000a900473ffffffffffffffffffffffffffffffffffffffff1691505090565b60605f6106ee610af1565b90508060040180546106ff90611fad565b80601f016020809104026020016040519081016040528092919081815260200182805461072b90611fad565b80156107765780601f1061074d57610100808354040283529160200191610776565b820191905f5260205f20905b81548152906001019060200180831161075957829003601f168201915b505050505091505090565b5f61078a6110c9565b90505f815f0160089054906101000a900460ff161590505f825f015f9054906101000a900467ffffffffffffffff1690505f808267ffffffffffffffff161480156107d25750825b90505f60018367ffffffffffffffff1614801561080557505f3073ffffffffffffffffffffffffffffffffffffffff163b145b905081158015610813575080155b1561084a576040517ff92ee8a900000000000000000000000000000000000000000000000000000000815260040160405180910390fd5b6001855f015f6101000a81548167ffffffffffffffff021916908367ffffffffffffffff1602179055508315610897576001855f0160086101000a81548160ff0219169083151502179055505b6108a18c8c6110dc565b6108aa866110f2565b895f81905550886001819055508760028190555086600381905550831561091f575f855f0160086101000a81548160ff0219169083151502179055507fc7f505b2f371ae2175ee4913f4499e1f2633a7b5936321eed1cdaeb6115181d260016040516109169190612032565b60405180910390a15b505050505050505050505050565b5f80610937610b18565b9050610944818585610bc4565b600191505092915050565b6040518060400160405280600581526020017f352e302e3000000000000000000000000000000000000000000000000000000081525081565b565b6002544210156109cf576040517f08c379a00000000000000000000000000000000000000000000000000000000081526004016109c690612095565b60405180910390fd5b565b60015481565b60025481565b5f806109e7610af1565b9050806001015f8573ffffffffffffffffffffffffffffffffffffffff1673ffffffffffffffffffffffffffffffffffffffff1681526020019081526020015f205f8473ffffffffffffffffffffffffffffffffffffffff1673ffffffffffffffffffffffffffffffffffffffff1681526020019081526020015f205491505092915050565b610a75610f4a565b5f73ffffffffffffffffffffffffffffffffffffffff168173ffffffffffffffffffffffffffffffffffffffff1603610ae5575f6040517f1e4fbdf7000000000000000000000000000000000000000000000000000000008152600401610adc9190611db6565b60405180910390fd5b610aee81610fd1565b50565b5f7f52c63247e1f47db19d5ce0460030c497f067ca4cebf71ba98eeadabe20bace00905090565b5f33905090565b610b2c8383836001611106565b505050565b5f610b3c84846109dd565b90507fffffffffffffffffffffffffffffffffffffffffffffffffffffffffffffffff811015610bbe5781811015610baf578281836040517ffb8f41b2000000000000000000000000000000000000000000000000000000008152600401610ba6939291906120b3565b60405180910390fd5b610bbd84848484035f611106565b5b50505050565b5f73ffffffffffffffffffffffffffffffffffffffff168373ffffffffffffffffffffffffffffffffffffffff1603610c34575f6040517f96c6fd1e000000000000000000000000000000000000000000000000000000008152600401610c2b9190611db6565b60405180910390fd5b5f73ffffffffffffffffffffffffffffffffffffffff168273ffffffffffffffffffffffffffffffffffffffff1603610ca4575f6040517fec442f05000000000000000000000000000000000000000000000000000000008152600401610c9b9190611db6565b60405180910390fd5b610caf8383836112e3565b505050565b7f000000000000000000000000000000000000000000000000000000000000000073ffffffffffffffffffffffffffffffffffffffff163073ffffffffffffffffffffffffffffffffffffffff161480610d6157507f000000000000000000000000000000000000000000000000000000000000000073ffffffffffffffffffffffffffffffffffffffff16610d48611512565b73ffffffffffffffffffffffffffffffffffffffff1614155b15610d98576040517fe07c8dba00000000000000000000000000000000000000000000000000000000815260040160405180910390fd5b565b610da2610f4a565b50565b8173ffffffffffffffffffffffffffffffffffffffff166352d1902d6040518163ffffffff1660e01b8152600401602060405180830381865afa925050508015610e0d57506040513d601f19601f82011682018060405250810190610e0a9190612112565b60015b610e4e57816040517f4c9c8ce3000000000000000000000000000000000000000000000000000000008152600401610e459190611db6565b60405180910390fd5b7f360894a13ba1a3210667c828492db98dca3e2076cc3735a920a3ca505d382bbc5f1b8114610eb457806040517faa1d49a4000000000000000000000000000000000000000000000000000000008152600401610eab9190611d63565b60405180910390fd5b610ebe8383611565565b505050565b7f000000000000000000000000000000000000000000000000000000000000000073ffffffffffffffffffffffffffffffffffffffff163073ffffffffffffffffffffffffffffffffffffffff1614610f48576040517fe07c8dba00000000000000000000000000000000000000000000000000000000815260040160405180910390fd5b565b610f52610b18565b73ffffffffffffffffffffffffffffffffffffffff16610f706106ae565b73ffffffffffffffffffffffffffffffffffffffff1614610fcf57610f93610b18565b6040517f118cdaa7000000000000000000000000000000000000000000000000000000008152600401610fc69190611db6565b60405180910390fd5b565b5f610fda6110a2565b90505f815f015f9054906101000a900473ffffffffffffffffffffffffffffffffffffffff16905082825f015f6101000a81548173ffffffffffffffffffffffffffffffffffffffff021916908373ffffffffffffffffffffffffffffffffffffffff1602179055508273ffffffffffffffffffffffffffffffffffffffff168173ffffffffffffffffffffffffffffffffffffffff167f8be0079c531659141344cd1fd0a4f28419497f9722a3daafe3b4186f6b6457e060405160405180910390a3505050565b5f7f9016d09d72d40fdae2fd8ceac6b6234c7706214fd39c1cd1e609a0528c199300905090565b5f806110d36115d7565b90508091505090565b6110e4611600565b6110ee8282611640565b5050565b6110fa611600565b6111038161167c565b50565b5f61110f610af1565b90505f73ffffffffffffffffffffffffffffffffffffffff168573ffffffffffffffffffffffffffffffffffffffff1603611181575f6040517fe602df050000000000000000000000000000000000000000000000000000000081526004016111789190611db6565b60405180910390fd5b5f73ffffffffffffffffffffffffffffffffffffffff168473ffffffffffffffffffffffffffffffffffffffff16036111f1575f6040517f94280d620000000000000000000000000000000000000000000000000000000081526004016111e89190611db6565b60405180910390fd5b82816001015f8773ffffffffffffffffffffffffffffffffffffffff1673ffffffffffffffffffffffffffffffffffffffff1681526020019081526020015f205f8673ffffffffffffffffffffffffffffffffffffffff1673ffffffffffffffffffffffffffffffffffffffff1681526020019081526020015f208190555081156112dc578373ffffffffffffffffffffffffffffffffffffffff168573ffffffffffffffffffffffffffffffffffffffff167f8c5be1e5ebec7d5bd14f71427d1e84f3dd0314c0f7b2291e5b200ac8c7c3b925856040516112d39190611b28565b60405180910390a35b5050505050565b5f6112ec610af1565b90505f73ffffffffffffffffffffffffffffffffffffffff168473ffffffffffffffffffffffffffffffffffffffff16036113405781816002015f828254611334919061216a565b92505081905550611412565b5f815f015f8673ffffffffffffffffffffffffffffffffffffffff1673ffffffffffffffffffffffffffffffffffffffff1681526020019081526020015f20549050828110156113cb578481846040517fe450d38c0000000000000000000000000000000000000000000000000000000081526004016113c2939291906120b3565b60405180910390fd5b828103825f015f8773ffffffffffffffffffffffffffffffffffffffff1673ffffffffffffffffffffffffffffffffffffffff1681526020019081526020015f2081905550505b5f73ffffffffffffffffffffffffffffffffffffffff168373ffffffffffffffffffffffffffffffffffffffff160361145b5781816002015f82825403925050819055506114a7565b81815f015f8573ffffffffffffffffffffffffffffffffffffffff1673ffffffffffffffffffffffffffffffffffffffff1681526020019081526020015f205f82825401925050819055505b8273ffffffffffffffffffffffffffffffffffffffff168473ffffffffffffffffffffffffffffffffffffffff167fddf252ad1be2c89b69c2b068fc378daa952ba7f163c4a11628f55a4df523b3ef846040516115049190611b28565b60405180910390a350505050565b5f61153e7f360894a13ba1a3210667c828492db98dca3e2076cc3735a920a3ca505d382bbc5f1b611700565b5f015f9054906101000a900473ffffffffffffffffffffffffffffffffffffffff16905090565b61156e82611709565b8173ffffffffffffffffffffffffffffffffffffffff167fbc7cd75a20ee27fd9adebab32041f755214dbc6bffa90cc0225b39da2e5c2d3b60405160405180910390a25f815111156115ca576115c482826117d2565b506115d3565b6115d26118c3565b5b5050565b5f7ff0c57e16840df040f15088dc2f81fe391c3923bec73e23a9662efc9c229c6a005f1b905090565b6116086118ff565b61163e576040517fd7e6bcf800000000000000000000000000000000000000000000000000000000815260040160405180910390fd5b565b611648611600565b5f611651610af1565b9050828160030190816116649190612331565b50818160040190816116769190612331565b50505050565b611684611600565b5f73ffffffffffffffffffffffffffffffffffffffff168173ffffffffffffffffffffffffffffffffffffffff16036116f4575f6040517f1e4fbdf70000000000000000000000000000000000000000000000000000000081526004016116eb9190611db6565b60405180910390fd5b6116fd81610fd1565b50565b5f819050919050565b5f8173ffffffffffffffffffffffffffffffffffffffff163b0361176457806040517f4c9c8ce300000000000000000000000000000000000000000000000000000000815260040161175b9190611db6565b60405180910390fd5b806117907f360894a13ba1a3210667c828492db98dca3e2076cc3735a920a3ca505d382bbc5f1b611700565b5f015f6101000a81548173ffffffffffffffffffffffffffffffffffffffff021916908373ffffffffffffffffffffffffffffffffffffffff16021790555050565b60605f6117df848461191d565b905080801561181557505f6117f2611931565b118061181457505f8473ffffffffffffffffffffffffffffffffffffffff163b115b5b1561182a57611822611938565b9150506118bd565b801561186d57836040517f9996b3150000000000000000000000000000000000000000000000000000000081526004016118649190611db6565b60405180910390fd5b5f611876611931565b111561188957611884611955565b6118bb565b6040517fd6bda27500000000000000000000000000000000000000000000000000000000815260040160405180910390fd5b505b92915050565b5f3411156118fd576040517fb398979f00000000000000000000000000000000000000000000000000000000815260040160405180910390fd5b565b5f6119086110c9565b5f0160089054906101000a900460ff16905090565b5f805f835160208501865af4905092915050565b5f3d905090565b606060405190503d81523d5f602083013e3d602001810160405290565b6040513d5f823e3d81fd5b5f81519050919050565b5f82825260208201905092915050565b5f5b8381101561199757808201518184015260208101905061197c565b5f8484015250505050565b5f601f19601f8301169050919050565b5f6119bc82611960565b6119c6818561196a565b93506119d681856020860161197a565b6119df816119a2565b840191505092915050565b5f6020820190508181035f830152611a0281846119b2565b905092915050565b5f604051905090565b5f80fd5b5f80fd5b5f73ffffffffffffffffffffffffffffffffffffffff82169050919050565b5f611a4482611a1b565b9050919050565b611a5481611a3a565b8114611a5e575f80fd5b50565b5f81359050611a6f81611a4b565b92915050565b5f819050919050565b611a8781611a75565b8114611a91575f80fd5b50565b5f81359050611aa281611a7e565b92915050565b5f8060408385031215611abe57611abd611a13565b5b5f611acb85828601611a61565b9250506020611adc85828601611a94565b9150509250929050565b5f8115159050919050565b611afa81611ae6565b82525050565b5f602082019050611b135f830184611af1565b92915050565b611b2281611a75565b82525050565b5f602082019050611b3b5f830184611b19565b92915050565b5f805f60608486031215611b5857611b57611a13565b5b5f611b6586828701611a61565b9350506020611b7686828701611a61565b9250506040611b8786828701611a94565b9150509250925092565b5f60ff82169050919050565b611ba681611b91565b82525050565b5f602082019050611bbf5f830184611b9d565b92915050565b5f80fd5b5f80fd5b7f4e487b71000000000000000000000000000000000000000000000000000000005f52604160045260245ffd5b611c03826119a2565b810181811067ffffffffffffffff82111715611c2257611c21611bcd565b5b80604052505050565b5f611c34611a0a565b9050611c408282611bfa565b919050565b5f67ffffffffffffffff821115611c5f57611c5e611bcd565b5b611c68826119a2565b9050602081019050919050565b828183375f83830152505050565b5f611c95611c9084611c45565b611c2b565b905082815260208101848484011115611cb157611cb0611bc9565b5b611cbc848285611c75565b509392505050565b5f82601f830112611cd857611cd7611bc5565b5b8135611ce8848260208601611c83565b91505092915050565b5f8060408385031215611d0757611d06611a13565b5b5f611d1485828601611a61565b925050602083013567ffffffffffffffff811115611d3557611d34611a17565b5b611d4185828601611cc4565b9150509250929050565b5f819050919050565b611d5d81611d4b565b82525050565b5f602082019050611d765f830184611d54565b92915050565b5f60208284031215611d9157611d90611a13565b5b5f611d9e84828501611a61565b91505092915050565b611db081611a3a565b82525050565b5f602082019050611dc95f830184611da7565b92915050565b5f67ffffffffffffffff821115611de957611de8611bcd565b5b611df2826119a2565b9050602081019050919050565b5f611e11611e0c84611dcf565b611c2b565b905082815260208101848484011115611e2d57611e2c611bc9565b5b611e38848285611c75565b509392505050565b5f82601f830112611e5457611e53611bc5565b5b8135611e64848260208601611dff565b91505092915050565b5f805f805f805f60e0888a031215611e8857611e87611a13565b5b5f88013567ffffffffffffffff811115611ea557611ea4611a17565b5b611eb18a828b01611e40565b975050602088013567ffffffffffffffff811115611ed257611ed1611a17565b5b611ede8a828b01611e40565b9650506040611eef8a828b01611a94565b9550506060611f008a828b01611a94565b9450506080611f118a828b01611a94565b93505060a0611f228a828b01611a94565b92505060c0611f338a828b01611a61565b91505092959891949750929550565b5f8060408385031215611f5857611f57611a13565b5b5f611f6585828601611a61565b9250506020611f7685828601611a61565b9150509250929050565b7f4e487b71000000000000000000000000000000000000000000000000000000005f52602260045260245ffd5b5f6002820490506001821680611fc457607f821691505b602082108103611fd757611fd6611f80565b5b50919050565b5f819050919050565b5f67ffffffffffffffff82169050919050565b5f819050919050565b5f61201c61201761201284611fdd565b611ff9565b611fe6565b9050919050565b61202c81612002565b82525050565b5f6020820190506120455f830184612023565b92915050565b7f426f6e6420686173206e6f74206d6174757265640000000000000000000000005f82015250565b5f61207f60148361196a565b915061208a8261204b565b602082019050919050565b5f6020820190508181035f8301526120ac81612073565b9050919050565b5f6060820190506120c65f830186611da7565b6120d36020830185611b19565b6120e06040830184611b19565b949350505050565b6120f181611d4b565b81146120fb575f80fd5b50565b5f8151905061210c816120e8565b92915050565b5f6020828403121561212757612126611a13565b5b5f612134848285016120fe565b91505092915050565b7f4e487b71000000000000000000000000000000000000000000000000000000005f52601160045260245ffd5b5f61217482611a75565b915061217f83611a75565b92508282019050808211156121975761219661213d565b5b92915050565b5f819050815f5260205f209050919050565b5f6020601f8301049050919050565b5f82821b905092915050565b5f600883026121f97fffffffffffffffffffffffffffffffffffffffffffffffffffffffffffffffff826121be565b61220386836121be565b95508019841693508086168417925050509392505050565b5f61223561223061222b84611a75565b611ff9565b611a75565b9050919050565b5f819050919050565b61224e8361221b565b61226261225a8261223c565b8484546121ca565b825550505050565b5f90565b61227661226a565b612281818484612245565b505050565b5b818110156122a4576122995f8261226e565b600181019050612287565b5050565b601f8211156122e9576122ba8161219d565b6122c3846121af565b810160208510156122d2578190505b6122e66122de856121af565b830182612286565b50505b505050565b5f82821c905092915050565b5f6123095f19846008026122ee565b1980831691505092915050565b5f61232183836122fa565b9150826002028217905092915050565b61233a82611960565b67ffffffffffffffff81111561235357612352611bcd565b5b61235d8254611fad565b6123688282856122a8565b5f60209050601f831160018114612399575f8415612387578287015190505b6123918582612316565b8655506123f8565b601f1984166123a78661219d565b5f5b828110156123ce578489015182556001820191506020850194506020810190506123a9565b868310156123eb57848901516123e7601f8916826122fa565b8355505b6001600288020188555050505b50505050505056fea2646970667358221220f1b3a4b6e50fc5172f203a2d534bdf0d5fc1abd5552b1f1f07ca074be901072164736f6c63430008180033",
  "linkReferences": {},
  "deployedLinkReferences": {}
}