{
  "_format": "hh-sol-artifact-1",
  "contractName": "DerivativeToken",
  "sourceName": "contracts/DerivativeToken.sol",
  "abi": [
    {
      "inputs": [],
      "stateMutability": "nonpayable",
      "type": "constructor"
    },
    {
      "inputs": [
        {
          "internalType": "address",
          "name": "target",
          "type": "address"
        }
      ],
      "name": "AddressEmptyCode",
      "type": "error"
    },
    {
      "inputs": [
        {
          "internalType": "address",
          "name": "sender",
          "type": "address"
        },
        {
          "internalType": "uint256",
          "name": "balance",
          "type": "uint256"
        },
        {
          "internalType": "uint256",
          "name": "needed",
          "type": "uint256"
        },
        {
          "internalType": "uint256",
          "name": "tokenId",
          "type": "uint256"
        }
      ],
      "name": "ERC1155InsufficientBalance",
      "type": "error"
    },
    {
      "inputs": [
        {
          "internalType": "address",
          "name": "approver",
          "type": "address"
        }
      ],
      "name": "ERC1155InvalidApprover",
      "type": "error"
    },
    {
      "inputs": [
        {
          "internalType": "uint256",
          "name": "idsLength",
          "type": "uint256"
        },
        {
          "internalType": "uint256",
          "name": "valuesLength",
          "type": "uint256"
        }
      ],
      "name": "ERC1155InvalidArrayLength",
      "type": "error"
    },
    {
      "inputs": [
        {
          "internalType": "address",
          "name": "operator",
          "type": "address"
        }
      ],
      "name": "ERC1155InvalidOperator",
      "type": "error"
    },
    {
      "inputs": [
        {
          "internalType": "address",
          "name": "receiver",
          "type": "address"
        }
      ],
      "name": "ERC1155InvalidReceiver",
      "type": "error"
    },
    {
      "inputs": [
        {
          "internalType": "address",
          "name": "sender",
          "type": "address"
        }
      ],
      "name": "ERC1155InvalidSender",
      "type": "error"
    },
    {
      "inputs": [
        {
          "internalType": "address",
          "name": "operator",
          "type": "address"
        },
        {
          "internalType": "address",
          "name": "owner",
          "type": "address"
        }
      ],
      "name": "ERC1155MissingApprovalForAll",
      "type": "error"
    },
    {
      "inputs": [
        {
          "internalType": "address",
          "name": "implementation",
          "type": "address"
        }
      ],
      "name": "ERC1967InvalidImplementation",
      "type": "error"
    },
    {
      "inputs": [],
      "name": "ERC1967NonPayable",
      "type": "error"
    },
    {
      "inputs": [],
      "name": "FailedCall",
      "type": "error"
    },
    {
      "inputs": [],
      "name": "InvalidInitialization",
      "type": "error"
    },
    {
      "inputs": [],
      "name": "NotInitializing",
      "type": "error"
    },
    {
      "inputs": [
        {
          "internalType": "address",
          "name": "owner",
          "type": "address"
        }
      ],
      "name": "OwnableInvalidOwner",
      "type": "error"
    },
    {
      "inputs": [
        {
          "internalType": "address",
          "name": "account",
          "type": "address"
        }
      ],
      "name": "OwnableUnauthorizedAccount",
      "type": "error"
    },
    {
      "inputs": [],
      "name": "UUPSUnauthorizedCallContext",
      "type": "error"
    },
    {
      "inputs": [
        {
          "internalType": "bytes32",
          "name": "slot",
          "type": "bytes32"
        }
      ],
      "name": "UUPSUnsupportedProxiableUUID",
      "type": "error"
    },
    {
      "anonymous": false,
      "inputs": [
        {
          "indexed": true,
          "internalType": "address",
          "name": "account",
          "type": "address"
        },
        {
          "indexed": true,
          "internalType": "address",
          "name": "operator",
          "type": "address"
        },
        {
          "indexed": false,
          "internalType": "bool",
          "name": "approved",
          "type": "bool"
        }
      ],
      "name": "ApprovalForAll",
      "type": "event"
    },
    {
      "anonymous": false,
      "inputs": [
        {
          "indexed": false,
          "internalType": "uint64",
          "name": "version",
          "type": "uint64"
        }
      ],
      "name": "Initialized",
      "type": "event"
    },
    {
      "anonymous": false,
      "inputs": [
        {
          "indexed": true,
          "internalType": "address",
          "name": "previousOwner",
          "type": "address"
        },
        {
          "indexed": true,
          "internalType": "address",
          "name": "newOwner",
          "type": "address"
        }
      ],
      "name": "OwnershipTransferred",
      "type": "event"
    },
    {
      "anonymous": false,
      "inputs": [
        {
          "indexed": true,
          "internalType": "address",
          "name": "operator",
          "type": "address"
        },
        {
          "indexed": true,
          "internalType": "address",
          "name": "from",
          "type": "address"
        },
        {
          "indexed": true,
          "internalType": "address",
          "name": "to",
          "type": "address"
        },
        {
          "indexed": false,
          "internalType": "uint256[]",
          "name": "ids",
          "type": "uint256[]"
        },
        {
          "indexed": false,
          "internalType": "uint256[]",
          "name": "values",
          "type": "uint256[]"
        }
      ],
      "name": "TransferBatch",
      "type": "event"
    },
    {
      "anonymous": false,
      "inputs": [
        {
          "indexed": true,
          "internalType": "address",
          "name": "operator",
          "type": "address"
        },
        {
          "indexed": true,
          "internalType": "address",
          "name": "from",
          "type": "address"
        },
        {
          "indexed": true,
          "internalType": "address",
          "name": "to",
          "type": "address"
        },
        {
          "indexed": false,
          "internalType": "uint256",
          "name": "id",
          "type": "uint256"
        },
        {
          "indexed": false,
          "internalType": "uint256",
          "name": "value",
          "type": "uint256"
        }
      ],
      "name": "TransferSingle",
      "type": "event"
    },
    {
      "anonymous": false,
      "inputs": [
        {
          "indexed": false,
          "internalType": "string",
          "name": "value",
          "type": "string"
        },
        {
          "indexed": true,
          "internalType": "uint256",
          "name": "id",
          "type": "uint256"
        }
      ],
      "name": "URI",
      "type": "event"
    },
    {
      "anonymous": false,
      "inputs": [
        {
          "indexed": true,
          "internalType": "address",
          "name": "implementation",
          "type": "address"
        }
      ],
      "name": "Upgraded",
      "type": "event"
    },
    {
      "inputs": [],
      "name": "UPGRADE_INTERFACE_VERSION",
      "outputs": [
        {
          "internalType": "string",
          "name": "",
          "type": "string"
        }
      ],
      "stateMutability": "view",
      "type": "function"
    },
    {
      "inputs": [
        {
          "internalType": "address",
          "name": "account",
          "type": "address"
        },
        {
          "internalType": "uint256",
          "name": "id",
          "type": "uint256"
        }
      ],
      "name": "balanceOf",
      "outputs": [
        {
          "internalType": "uint256",
          "name": "",
          "type": "uint256"
        }
      ],
      "stateMutability": "view",
      "type": "function"
    },
    {
      "inputs": [
        {
          "internalType": "address[]",
          "name": "accounts",
          "type": "address[]"
        },
        {
          "internalType": "uint256[]",
          "name": "ids",
          "type": "uint256[]"
        }
      ],
      "name": "balanceOfBatch",
      "outputs": [
        {
          "internalType": "uint256[]",
          "name": "",
          "type": "uint256[]"
        }
      ],
      "stateMutability": "view",
      "type": "function"
    },
    {
      "inputs": [
        {
          "internalType": "uint256",
          "name": "",
          "type": "uint256"
        }
      ],
      "name": "contractsDetails",
      "outputs": [
        {
          "internalType": "uint256",
          "name": "strike",
          "type": "uint256"
        },
        {
          "internalType": "uint256",
          "name": "expiry",
          "type": "uint256"
        },
        {
          "internalType": "bool",
          "name": "isCall",
          "type": "bool"
        },
        {
          "internalType": "address",
          "name": "underlying",
          "type": "address"
        }
      ],
      "stateMutability": "view",
      "type": "function"
    },
    {
      "inputs": [
        {
          "internalType": "uint256",
          "name": "strike",
          "type": "uint256"
        },
        {
          "internalType": "uint256",
          "name": "expiry",
          "type": "uint256"
        },
        {
          "internalType": "bool",
          "name": "isCall",
          "type": "bool"
        },
        {
          "internalType": "address",
          "name": "underlying",
          "type": "address"
        }
      ],
      "name": "createDerivative",
      "outputs": [
        {
          "internalType": "uint256",
          "name": "",
          "type": "uint256"
        }
      ],
      "stateMutability": "nonpayable",
      "type": "function"
    },
    {
      "inputs": [
        {
          "internalType": "uint256",
          "name": "tokenId",
          "type": "uint256"
        }
      ],
      "name": "exercise",
      "outputs": [],
      "stateMutability": "nonpayable",
      "type": "function"
    },
    {
      "inputs": [
        {
          "internalType": "string",
          "name": "uri",
          "type": "string"
        },
        {
          "internalType": "address",
          "name": "initialOwner",
          "type": "address"
        }
      ],
      "name": "initialize",
      "outputs": [],
      "stateMutability": "nonpayable",
      "type": "function"
    },
    {
      "inputs": [
        {
          "internalType": "address",
          "name": "account",
          "type": "address"
        },
        {
          "internalType": "address",
          "name": "operator",
          "type": "address"
        }
      ],
      "name": "isApprovedForAll",
      "outputs": [
        {
          "internalType": "bool",
          "name": "",
          "type": "bool"
        }
      ],
      "stateMutability": "view",
      "type": "function"
    },
    {
      "inputs": [
        {
          "internalType": "address",
          "name": "account",
          "type": "address"
        },
        {
          "internalType": "uint256",
          "name": "id",
          "type": "uint256"
        },
        {
          "internalType": "uint256",
          "name": "amount",
          "type": "uint256"
        },
        {
          "internalType": "bytes",
          "name": "data",
          "type": "bytes"
        }
      ],
      "name": "mint",
      "outputs": [],
      "stateMutability": "nonpayable",
      "type": "function"
    },
    {
      "inputs": [
        {
          "internalType": "address",
          "name": "to",
          "type": "address"
        },
        {
          "internalType": "uint256[]",
          "name": "ids",
          "type": "uint256[]"
        },
        {
          "internalType": "uint256[]",
          "name": "amounts",
          "type": "uint256[]"
        },
        {
          "internalType": "bytes",
          "name": "data",
          "type": "bytes"
        }
      ],
      "name": "mintBatch",
      "outputs": [],
      "stateMutability": "nonpayable",
      "type": "function"
    },
    {
      "inputs": [],
      "name": "nextTokenId",
      "outputs": [
        {
          "internalType": "uint256",
          "name": "",
          "type": "uint256"
        }
      ],
      "stateMutability": "view",
      "type": "function"
    },
    {
      "inputs": [],
      "name": "owner",
      "outputs": [
        {
          "internalType": "address",
          "name": "",
          "type": "address"
        }
      ],
      "stateMutability": "view",
      "type": "function"
    },
    {
      "inputs": [],
      "name": "proxiableUUID",
      "outputs": [
        {
          "internalType": "bytes32",
          "name": "",
          "type": "bytes32"
        }
      ],
      "stateMutability": "view",
      "type": "function"
    },
    {
      "inputs": [],
      "name": "renounceOwnership",
      "outputs": [],
      "stateMutability": "nonpayable",
      "type": "function"
    },
    {
      "inputs": [
        {
          "internalType": "address",
          "name": "from",
          "type": "address"
        },
        {
          "internalType": "address",
          "name": "to",
          "type": "address"
        },
        {
          "internalType": "uint256[]",
          "name": "ids",
          "type": "uint256[]"
        },
        {
          "internalType": "uint256[]",
          "name": "values",
          "type": "uint256[]"
        },
        {
          "internalType": "bytes",
          "name": "data",
          "type": "bytes"
        }
      ],
      "name": "safeBatchTransferFrom",
      "outputs": [],
      "stateMutability": "nonpayable",
      "type": "function"
    },
    {
      "inputs": [
        {
          "internalType": "address",
          "name": "from",
          "type": "address"
        },
        {
          "internalType": "address",
          "name": "to",
          "type": "address"
        },
        {
          "internalType": "uint256",
          "name": "id",
          "type": "uint256"
        },
        {
          "internalType": "uint256",
          "name": "value",
          "type": "uint256"
        },
        {
          "internalType": "bytes",
          "name": "data",
          "type": "bytes"
        }
      ],
      "name": "safeTransferFrom",
      "outputs": [],
      "stateMutability": "nonpayable",
      "type": "function"
    },
    {
      "inputs": [
        {
          "internalType": "address",
          "name": "operator",
          "type": "address"
        },
        {
          "internalType": "bool",
          "name": "approved",
          "type": "bool"
        }
      ],
      "name": "setApprovalForAll",
      "outputs": [],
      "stateMutability": "nonpayable",
      "type": "function"
    },
    {
      "inputs": [
        {
          "internalType": "uint256",
          "name": "tokenId",
          "type": "uint256"
        }
      ],
      "name": "settle",
      "outputs": [],
      "stateMutability": "nonpayable",
      "type": "function"
    },
    {
      "inputs": [
        {
          "internalType": "bytes4",
          "name": "interfaceId",
          "type": "bytes4"
        }
      ],
      "name": "supportsInterface",
      "outputs": [
        {
          "internalType": "bool",
          "name": "",
          "type": "bool"
        }
      ],
      "stateMutability": "view",
      "type": "function"
    },
    {
      "inputs": [
        {
          "internalType": "address",
          "name": "newOwner",
          "type": "address"
        }
      ],
      "name": "transferOwnership",
      "outputs": [],
      "stateMutability": "nonpayable",
      "type": "function"
    },
    {
      "inputs": [
        {
          "internalType": "address",
          "name": "newImplementation",
          "type": "address"
        },
        {
          "internalType": "bytes",
          "name": "data",
          "type": "bytes"
        }
      ],
      "name": "upgradeToAndCall",
      "outputs": [],
      "stateMutability": "payable",
      "type": "function"
    },
    {
      "inputs": [
        {
          "internalType": "uint256",
          "name": "",
          "type": "uint256"
        }
      ],
      "name": "uri",
      "outputs": [
        {
          "internalType": "string",
          "name": "",
          "type": "string"
        }
      ],
      "stateMutability": "view",
      "type": "function"
    }
  ],
  "bytecode": "0x60a06040523073ffffffffffffffffffffffffffffffffffffffff1660809073ffffffffffffffffffffffffffffffffffffffff1681525034801562000043575f80fd5b50620000546200005a60201b60201c565b620001e1565b5f6200006b6200015e60201b60201c565b9050805f0160089054906101000a900460ff1615620000b6576040517ff92ee8a900000000000000000000000000000000000000000000000000000000815260040160405180910390fd5b67ffffffffffffffff8016815f015f9054906101000a900467ffffffffffffffff1667ffffffffffffffff16146200015b5767ffffffffffffffff815f015f6101000a81548167ffffffffffffffff021916908367ffffffffffffffff1602179055507fc7f505b2f371ae2175ee4913f4499e1f2633a7b5936321eed1cdaeb6115181d267ffffffffffffffff604051620001529190620001c6565b60405180910390a15b50565b5f80620001706200017960201b60201c565b90508091505090565b5f7ff0c57e16840df040f15088dc2f81fe391c3923bec73e23a9662efc9c229c6a005f1b905090565b5f67ffffffffffffffff82169050919050565b620001c081620001a2565b82525050565b5f602082019050620001db5f830184620001b5565b92915050565b6080516137ca620002085f395f818161111201528181611167015261132101526137ca5ff3fe608060405260043610610133575f3560e01c806375794a3c116100aa578063ad3cb1cc1161006e578063ad3cb1cc14610403578063ae88df9d1461042d578063b07f0a411461046c578063e985e9c514610494578063f242432a146104d0578063f2fde38b146104f857610133565b806375794a3c146103375780637ab4339d146103615780638da5cb5b146103895780638df82800146103b3578063a22cb465146103db57610133565b80632eb2c2d6116100fc5780632eb2c2d61461024f5780634e1273f4146102775780634f1ef286146102b357806352d1902d146102cf578063715018a6146102f9578063731133e91461030f57610133565b8062fdd58e1461013757806301ffc9a7146101735780630e89341c146101af5780631f7fdffa146101eb5780632d1a16d114610213575b5f80fd5b348015610142575f80fd5b5061015d6004803603810190610158919061251c565b610520565b60405161016a9190612569565b60405180910390f35b34801561017e575f80fd5b50610199600480360381019061019491906125d7565b610583565b6040516101a6919061261c565b60405180910390f35b3480156101ba575f80fd5b506101d560048036038101906101d09190612635565b610664565b6040516101e291906126ea565b60405180910390f35b3480156101f6575f80fd5b50610211600480360381019061020c91906128fa565b610704565b005b34801561021e575f80fd5b50610239600480360381019061023491906129dc565b61071e565b6040516102469190612569565b60405180910390f35b34801561025a575f80fd5b5061027560048036038101906102709190612a40565b610810565b005b348015610282575f80fd5b5061029d60048036038101906102989190612bcb565b610835565b6040516102aa9190612cf8565b60405180910390f35b6102cd60048036038101906102c89190612d18565b61093c565b005b3480156102da575f80fd5b506102e361095b565b6040516102f09190612d8a565b60405180910390f35b348015610304575f80fd5b5061030d61098c565b005b34801561031a575f80fd5b5061033560048036038101906103309190612da3565b61099f565b005b348015610342575f80fd5b5061034b6109b9565b6040516103589190612569565b60405180910390f35b34801561036c575f80fd5b5061038760048036038101906103829190612ec1565b6109bf565b005b348015610394575f80fd5b5061039d610b4a565b6040516103aa9190612f2a565b60405180910390f35b3480156103be575f80fd5b506103d960048036038101906103d49190612635565b610b7f565b005b3480156103e6575f80fd5b5061040160048036038101906103fc9190612f43565b610b82565b005b34801561040e575f80fd5b50610417610b98565b60405161042491906126ea565b60405180910390f35b348015610438575f80fd5b50610453600480360381019061044e9190612635565b610bd1565b6040516104639493929190612f81565b60405180910390f35b348015610477575f80fd5b50610492600480360381019061048d9190612635565b610c28565b005b34801561049f575f80fd5b506104ba60048036038101906104b59190612fc4565b610c81565b6040516104c7919061261c565b60405180910390f35b3480156104db575f80fd5b506104f660048036038101906104f19190613002565b610d1d565b005b348015610503575f80fd5b5061051e60048036038101906105199190613095565b610d42565b005b5f8061052a610dc6565b9050805f015f8481526020019081526020015f205f8573ffffffffffffffffffffffffffffffffffffffff1673ffffffffffffffffffffffffffffffffffffffff1681526020019081526020015f205491505092915050565b5f7fd9b67a26000000000000000000000000000000000000000000000000000000007bffffffffffffffffffffffffffffffffffffffffffffffffffffffff1916827bffffffffffffffffffffffffffffffffffffffffffffffffffffffff1916148061064d57507f0e89341c000000000000000000000000000000000000000000000000000000007bffffffffffffffffffffffffffffffffffffffffffffffffffffffff1916827bffffffffffffffffffffffffffffffffffffffffffffffffffffffff1916145b8061065d575061065c82610ded565b5b9050919050565b60605f61066f610dc6565b9050806002018054610680906130ed565b80601f01602080910402602001604051908101604052809291908181526020018280546106ac906130ed565b80156106f75780601f106106ce576101008083540402835291602001916106f7565b820191905f5260205f20905b8154815290600101906020018083116106da57829003601f168201915b5050505050915050919050565b61070c610e56565b61071884848484610edd565b50505050565b5f610727610e56565b5f60015f81548092919061073a9061314a565b919050559050604051806080016040528087815260200186815260200185151581526020018473ffffffffffffffffffffffffffffffffffffffff168152505f808381526020019081526020015f205f820151815f0155602082015181600101556040820151816002015f6101000a81548160ff02191690831515021790555060608201518160020160016101000a81548173ffffffffffffffffffffffffffffffffffffffff021916908373ffffffffffffffffffffffffffffffffffffffff16021790555090505080915050949350505050565b61082161081b610f62565b86610f69565b61082e8585858585610ff4565b5050505050565b6060815183511461088157815183516040517f5b059991000000000000000000000000000000000000000000000000000000008152600401610878929190613191565b60405180910390fd5b5f835167ffffffffffffffff81111561089d5761089c61270e565b5b6040519080825280602002602001820160405280156108cb5781602001602082028036833780820191505090505b5090505f5b8451811015610931576109076108ef82876110ea90919063ffffffff16565b61090283876110fd90919063ffffffff16565b610520565b82828151811061091a576109196131b8565b5b6020026020010181815250508060010190506108d0565b508091505092915050565b610944611110565b61094d826111f6565b6109578282611201565b5050565b5f61096461131f565b7f360894a13ba1a3210667c828492db98dca3e2076cc3735a920a3ca505d382bbc5f1b905090565b610994610e56565b61099d5f6113a6565b565b6109a7610e56565b6109b384848484611477565b50505050565b60015481565b5f6109c861150d565b90505f815f0160089054906101000a900460ff161590505f825f015f9054906101000a900467ffffffffffffffff1690505f808267ffffffffffffffff16148015610a105750825b90505f60018367ffffffffffffffff16148015610a4357505f3073ffffffffffffffffffffffffffffffffffffffff163b145b905081158015610a51575080155b15610a88576040517ff92ee8a900000000000000000000000000000000000000000000000000000000815260040160405180910390fd5b6001855f015f6101000a81548167ffffffffffffffff021916908367ffffffffffffffff1602179055508315610ad5576001855f0160086101000a81548160ff0219169083151502179055505b610ade87611520565b610ae786611534565b8315610b41575f855f0160086101000a81548160ff0219169083151502179055507fc7f505b2f371ae2175ee4913f4499e1f2633a7b5936321eed1cdaeb6115181d26001604051610b38919061323a565b60405180910390a15b50505050505050565b5f80610b54611548565b9050805f015f9054906101000a900473ffffffffffffffffffffffffffffffffffffffff1691505090565b50565b610b94610b8d610f62565b838361156f565b5050565b6040518060400160405280600581526020017f352e302e3000000000000000000000000000000000000000000000000000000081525081565b5f602052805f5260405f205f91509050805f015490806001015490806002015f9054906101000a900460ff16908060020160019054906101000a900473ffffffffffffffffffffffffffffffffffffffff16905084565b5f808281526020019081526020015f2060010154421115610c7e576040517f08c379a0000000000000000000000000000000000000000000000000000000008152600401610c759061329d565b60405180910390fd5b50565b5f80610c8b610dc6565b9050806001015f8573ffffffffffffffffffffffffffffffffffffffff1673ffffffffffffffffffffffffffffffffffffffff1681526020019081526020015f205f8473ffffffffffffffffffffffffffffffffffffffff1673ffffffffffffffffffffffffffffffffffffffff1681526020019081526020015f205f9054906101000a900460ff1691505092915050565b610d2e610d28610f62565b86610f69565b610d3b8585858585611756565b5050505050565b610d4a610e56565b5f73ffffffffffffffffffffffffffffffffffffffff168173ffffffffffffffffffffffffffffffffffffffff1603610dba575f6040517f1e4fbdf7000000000000000000000000000000000000000000000000000000008152600401610db19190612f2a565b60405180910390fd5b610dc3816113a6565b50565b5f7f88be536d5240c274a3b1d3a1be54482fd9caa294f08c62a7cde569f49a3c4500905090565b5f7f01ffc9a7000000000000000000000000000000000000000000000000000000007bffffffffffffffffffffffffffffffffffffffffffffffffffffffff1916827bffffffffffffffffffffffffffffffffffffffffffffffffffffffff1916149050919050565b610e5e610f62565b73ffffffffffffffffffffffffffffffffffffffff16610e7c610b4a565b73ffffffffffffffffffffffffffffffffffffffff1614610edb57610e9f610f62565b6040517f118cdaa7000000000000000000000000000000000000000000000000000000008152600401610ed29190612f2a565b60405180910390fd5b565b5f73ffffffffffffffffffffffffffffffffffffffff168473ffffffffffffffffffffffffffffffffffffffff1603610f4d575f6040517f57f447ce000000000000000000000000000000000000000000000000000000008152600401610f449190612f2a565b60405180910390fd5b610f5c5f85858585600161185d565b50505050565b5f33905090565b8173ffffffffffffffffffffffffffffffffffffffff168173ffffffffffffffffffffffffffffffffffffffff1614158015610fac5750610faa8183610c81565b155b15610ff05781816040517fe237d922000000000000000000000000000000000000000000000000000000008152600401610fe79291906132bb565b60405180910390fd5b5050565b5f73ffffffffffffffffffffffffffffffffffffffff168473ffffffffffffffffffffffffffffffffffffffff1603611064575f6040517f57f447ce00000000000000000000000000000000000000000000000000000000815260040161105b9190612f2a565b60405180910390fd5b5f73ffffffffffffffffffffffffffffffffffffffff168573ffffffffffffffffffffffffffffffffffffffff16036110d4575f6040517f01a835140000000000000000000000000000000000000000000000000000000081526004016110cb9190612f2a565b60405180910390fd5b6110e38585858585600161185d565b5050505050565b5f60208202602084010151905092915050565b5f60208202602084010151905092915050565b7f000000000000000000000000000000000000000000000000000000000000000073ffffffffffffffffffffffffffffffffffffffff163073ffffffffffffffffffffffffffffffffffffffff1614806111bd57507f000000000000000000000000000000000000000000000000000000000000000073ffffffffffffffffffffffffffffffffffffffff166111a4611907565b73ffffffffffffffffffffffffffffffffffffffff1614155b156111f4576040517fe07c8dba00000000000000000000000000000000000000000000000000000000815260040160405180910390fd5b565b6111fe610e56565b50565b8173ffffffffffffffffffffffffffffffffffffffff166352d1902d6040518163ffffffff1660e01b8152600401602060405180830381865afa92505050801561126957506040513d601f19601f82011682018060405250810190611266919061330c565b60015b6112aa57816040517f4c9c8ce30000000000000000000000000000000000000000000000000000000081526004016112a19190612f2a565b60405180910390fd5b7f360894a13ba1a3210667c828492db98dca3e2076cc3735a920a3ca505d382bbc5f1b811461131057806040517faa1d49a40000000000000000000000000000000000000000000000000000000081526004016113079190612d8a565b60405180910390fd5b61131a838361195a565b505050565b7f000000000000000000000000000000000000000000000000000000000000000073ffffffffffffffffffffffffffffffffffffffff163073ffffffffffffffffffffffffffffffffffffffff16146113a4576040517fe07c8dba00000000000000000000000000000000000000000000000000000000815260040160405180910390fd5b565b5f6113af611548565b90505f815f015f9054906101000a900473ffffffffffffffffffffffffffffffffffffffff16905082825f015f6101000a81548173ffffffffffffffffffffffffffffffffffffffff021916908373ffffffffffffffffffffffffffffffffffffffff1602179055508273ffffffffffffffffffffffffffffffffffffffff168173ffffffffffffffffffffffffffffffffffffffff167f8be0079c531659141344cd1fd0a4f28419497f9722a3daafe3b4186f6b6457e060405160405180910390a3505050565b5f73ffffffffffffffffffffffffffffffffffffffff168473ffffffffffffffffffffffffffffffffffffffff16036114e7575f6040517f57f447ce0000000000000000000000000000000000000000000000000000000081526004016114de9190612f2a565b60405180910390fd5b5f806114f385856119cc565b915091506115055f878484875f61185d565b505050505050565b5f806115176119fc565b90508091505090565b611528611a25565b61153181611a65565b50565b61153c611a25565b61154581611a79565b50565b5f7f9016d09d72d40fdae2fd8ceac6b6234c7706214fd39c1cd1e609a0528c199300905090565b5f611578610dc6565b90505f73ffffffffffffffffffffffffffffffffffffffff168473ffffffffffffffffffffffffffffffffffffffff16036115ea575f6040517f3e31884e0000000000000000000000000000000000000000000000000000000081526004016115e19190612f2a565b60405180910390fd5b5f73ffffffffffffffffffffffffffffffffffffffff168373ffffffffffffffffffffffffffffffffffffffff160361165a575f6040517fced3e1000000000000000000000000000000000000000000000000000000000081526004016116519190612f2a565b60405180910390fd5b81816001015f8673ffffffffffffffffffffffffffffffffffffffff1673ffffffffffffffffffffffffffffffffffffffff1681526020019081526020015f205f8573ffffffffffffffffffffffffffffffffffffffff1673ffffffffffffffffffffffffffffffffffffffff1681526020019081526020015f205f6101000a81548160ff0219169083151502179055508273ffffffffffffffffffffffffffffffffffffffff168473ffffffffffffffffffffffffffffffffffffffff167f17307eab39ab6107e8899845ad3d59bd9653f200f220920489ca2b5937696c3184604051611748919061261c565b60405180910390a350505050565b5f73ffffffffffffffffffffffffffffffffffffffff168473ffffffffffffffffffffffffffffffffffffffff16036117c6575f6040517f57f447ce0000000000000000000000000000000000000000000000000000000081526004016117bd9190612f2a565b60405180910390fd5b5f73ffffffffffffffffffffffffffffffffffffffff168573ffffffffffffffffffffffffffffffffffffffff1603611836575f6040517f01a8351400000000000000000000000000000000000000000000000000000000815260040161182d9190612f2a565b60405180910390fd5b5f8061184285856119cc565b9150915061185487878484875f61185d565b50505050505050565b61186986868686611afd565b5f73ffffffffffffffffffffffffffffffffffffffff168573ffffffffffffffffffffffffffffffffffffffff16146118ff575f6118a5610f62565b905081156118c0576118bb818888888888611e9f565b6118fd565b5f6118d45f876110fd90919063ffffffff16565b90505f6118ea5f876110fd90919063ffffffff16565b90506118fa838a8a85858a61204e565b50505b505b505050505050565b5f6119337f360894a13ba1a3210667c828492db98dca3e2076cc3735a920a3ca505d382bbc5f1b6121fd565b5f015f9054906101000a900473ffffffffffffffffffffffffffffffffffffffff16905090565b61196382612206565b8173ffffffffffffffffffffffffffffffffffffffff167fbc7cd75a20ee27fd9adebab32041f755214dbc6bffa90cc0225b39da2e5c2d3b60405160405180910390a25f815111156119bf576119b982826122cf565b506119c8565b6119c76123c0565b5b5050565b60608060405191506001825283602083015260408201905060018152826020820152604081016040529250929050565b5f7ff0c57e16840df040f15088dc2f81fe391c3923bec73e23a9662efc9c229c6a005f1b905090565b611a2d6123fc565b611a63576040517fd7e6bcf800000000000000000000000000000000000000000000000000000000815260040160405180910390fd5b565b611a6d611a25565b611a768161241a565b50565b611a81611a25565b5f73ffffffffffffffffffffffffffffffffffffffff168173ffffffffffffffffffffffffffffffffffffffff1603611af1575f6040517f1e4fbdf7000000000000000000000000000000000000000000000000000000008152600401611ae89190612f2a565b60405180910390fd5b611afa816113a6565b50565b5f611b06610dc6565b90508151835114611b5257825182516040517f5b059991000000000000000000000000000000000000000000000000000000008152600401611b49929190613191565b60405180910390fd5b5f611b5b610f62565b90505f5b8451811015611d5d575f611b7c82876110fd90919063ffffffff16565b90505f611b9283876110fd90919063ffffffff16565b90505f73ffffffffffffffffffffffffffffffffffffffff168973ffffffffffffffffffffffffffffffffffffffff1614611cb9575f855f015f8481526020019081526020015f205f8b73ffffffffffffffffffffffffffffffffffffffff1673ffffffffffffffffffffffffffffffffffffffff1681526020019081526020015f2054905081811015611c6357898183856040517f03dee4c5000000000000000000000000000000000000000000000000000000008152600401611c5a9493929190613337565b60405180910390fd5b818103865f015f8581526020019081526020015f205f8c73ffffffffffffffffffffffffffffffffffffffff1673ffffffffffffffffffffffffffffffffffffffff1681526020019081526020015f2081905550505b5f73ffffffffffffffffffffffffffffffffffffffff168873ffffffffffffffffffffffffffffffffffffffff1614611d505780855f015f8481526020019081526020015f205f8a73ffffffffffffffffffffffffffffffffffffffff1673ffffffffffffffffffffffffffffffffffffffff1681526020019081526020015f205f828254611d48919061337a565b925050819055505b5050806001019050611b5f565b506001845103611e18575f611d7b5f866110fd90919063ffffffff16565b90505f611d915f866110fd90919063ffffffff16565b90508673ffffffffffffffffffffffffffffffffffffffff168873ffffffffffffffffffffffffffffffffffffffff168473ffffffffffffffffffffffffffffffffffffffff167fc3d58168c5ae7397731d063d5bbf3d657854427343f4c083240f7aacaa2d0f628585604051611e09929190613191565b60405180910390a45050611e97565b8473ffffffffffffffffffffffffffffffffffffffff168673ffffffffffffffffffffffffffffffffffffffff168273ffffffffffffffffffffffffffffffffffffffff167f4a39dc06d4c0dbc64b70af90fd698a233a518aa5d07e595d983b8c0526c8f7fb8787604051611e8e9291906133ad565b60405180910390a45b505050505050565b5f8473ffffffffffffffffffffffffffffffffffffffff163b1115612046578373ffffffffffffffffffffffffffffffffffffffff1663bc197c8187878686866040518663ffffffff1660e01b8152600401611eff959493929190613434565b6020604051808303815f875af1925050508015611f3a57506040513d601f19601f82011682018060405250810190611f3791906134ae565b60015b611fbb573d805f8114611f68576040519150601f19603f3d011682016040523d82523d5f602084013e611f6d565b606091505b505f815103611fb357846040517f57f447ce000000000000000000000000000000000000000000000000000000008152600401611faa9190612f2a565b60405180910390fd5b805160208201fd5b63bc197c8160e01b7bffffffffffffffffffffffffffffffffffffffffffffffffffffffff1916817bffffffffffffffffffffffffffffffffffffffffffffffffffffffff19161461204457846040517f57f447ce00000000000000000000000000000000000000000000000000000000815260040161203b9190612f2a565b60405180910390fd5b505b505050505050565b5f8473ffffffffffffffffffffffffffffffffffffffff163b11156121f5578373ffffffffffffffffffffffffffffffffffffffff1663f23a6e6187878686866040518663ffffffff1660e01b81526004016120ae9594939291906134d9565b6020604051808303815f875af19250505080156120e957506040513d601f19601f820116820180604052508101906120e691906134ae565b60015b61216a573d805f8114612117576040519150601f19603f3d011682016040523d82523d5f602084013e61211c565b606091505b505f81510361216257846040517f57f447ce0000000000000000000000000000000000000000000000000000000081526004016121599190612f2a565b60405180910390fd5b805160208201fd5b63f23a6e6160e01b7bffffffffffffffffffffffffffffffffffffffffffffffffffffffff1916817bffffffffffffffffffffffffffffffffffffffffffffffffffffffff1916146121f357846040517f57f447ce0000000000000000000000000000000000000000000000000000000081526004016121ea9190612f2a565b60405180910390fd5b505b505050505050565b5f819050919050565b5f8173ffffffffffffffffffffffffffffffffffffffff163b0361226157806040517f4c9c8ce30000000000000000000000000000000000000000000000000000000081526004016122589190612f2a565b60405180910390fd5b8061228d7f360894a13ba1a3210667c828492db98dca3e2076cc3735a920a3ca505d382bbc5f1b6121fd565b5f015f6101000a81548173ffffffffffffffffffffffffffffffffffffffff021916908373ffffffffffffffffffffffffffffffffffffffff16021790555050565b60605f6122dc848461243b565b905080801561231257505f6122ef61244f565b118061231157505f8473ffffffffffffffffffffffffffffffffffffffff163b115b5b156123275761231f612456565b9150506123ba565b801561236a57836040517f9996b3150000000000000000000000000000000000000000000000000000000081526004016123619190612f2a565b60405180910390fd5b5f61237361244f565b111561238657612381612473565b6123b8565b6040517fd6bda27500000000000000000000000000000000000000000000000000000000815260040160405180910390fd5b505b92915050565b5f3411156123fa576040517fb398979f00000000000000000000000000000000000000000000000000000000815260040160405180910390fd5b565b5f61240561150d565b5f0160089054906101000a900460ff16905090565b5f612423610dc6565b90508181600201908161243691906136c5565b505050565b5f805f835160208501865af4905092915050565b5f3d905090565b606060405190503d81523d5f602083013e3d602001810160405290565b6040513d5f823e3d81fd5b5f604051905090565b5f80fd5b5f80fd5b5f73ffffffffffffffffffffffffffffffffffffffff82169050919050565b5f6124b88261248f565b9050919050565b6124c8816124ae565b81146124d2575f80fd5b50565b5f813590506124e3816124bf565b92915050565b5f819050919050565b6124fb816124e9565b8114612505575f80fd5b50565b5f81359050612516816124f2565b92915050565b5f806040838503121561253257612531612487565b5b5f61253f858286016124d5565b925050602061255085828601612508565b9150509250929050565b612563816124e9565b82525050565b5f60208201905061257c5f83018461255a565b92915050565b5f7fffffffff0000000000000000000000000000000000000000000000000000000082169050919050565b6125b681612582565b81146125c0575f80fd5b50565b5f813590506125d1816125ad565b92915050565b5f602082840312156125ec576125eb612487565b5b5f6125f9848285016125c3565b91505092915050565b5f8115159050919050565b61261681612602565b82525050565b5f60208201905061262f5f83018461260d565b92915050565b5f6020828403121561264a57612649612487565b5b5f61265784828501612508565b91505092915050565b5f81519050919050565b5f82825260208201905092915050565b5f5b8381101561269757808201518184015260208101905061267c565b5f8484015250505050565b5f601f19601f8301169050919050565b5f6126bc82612660565b6126c6818561266a565b93506126d681856020860161267a565b6126df816126a2565b840191505092915050565b5f6020820190508181035f83015261270281846126b2565b905092915050565b5f80fd5b7f4e487b71000000000000000000000000000000000000000000000000000000005f52604160045260245ffd5b612744826126a2565b810181811067ffffffffffffffff821117156127635761276261270e565b5b80604052505050565b5f61277561247e565b9050612781828261273b565b919050565b5f67ffffffffffffffff8211156127a05761279f61270e565b5b602082029050602081019050919050565b5f80fd5b5f6127c76127c284612786565b61276c565b905080838252602082019050602084028301858111156127ea576127e96127b1565b5b835b8181101561281357806127ff8882612508565b8452602084019350506020810190506127ec565b5050509392505050565b5f82601f8301126128315761283061270a565b5b81356128418482602086016127b5565b91505092915050565b5f80fd5b5f67ffffffffffffffff8211156128685761286761270e565b5b612871826126a2565b9050602081019050919050565b828183375f83830152505050565b5f61289e6128998461284e565b61276c565b9050828152602081018484840111156128ba576128b961284a565b5b6128c584828561287e565b509392505050565b5f82601f8301126128e1576128e061270a565b5b81356128f184826020860161288c565b91505092915050565b5f805f806080858703121561291257612911612487565b5b5f61291f878288016124d5565b945050602085013567ffffffffffffffff8111156129405761293f61248b565b5b61294c8782880161281d565b935050604085013567ffffffffffffffff81111561296d5761296c61248b565b5b6129798782880161281d565b925050606085013567ffffffffffffffff81111561299a5761299961248b565b5b6129a6878288016128cd565b91505092959194509250565b6129bb81612602565b81146129c5575f80fd5b50565b5f813590506129d6816129b2565b92915050565b5f805f80608085870312156129f4576129f3612487565b5b5f612a0187828801612508565b9450506020612a1287828801612508565b9350506040612a23878288016129c8565b9250506060612a34878288016124d5565b91505092959194509250565b5f805f805f60a08688031215612a5957612a58612487565b5b5f612a66888289016124d5565b9550506020612a77888289016124d5565b945050604086013567ffffffffffffffff811115612a9857612a9761248b565b5b612aa48882890161281d565b935050606086013567ffffffffffffffff811115612ac557612ac461248b565b5b612ad18882890161281d565b925050608086013567ffffffffffffffff811115612af257612af161248b565b5b612afe888289016128cd565b9150509295509295909350565b5f67ffffffffffffffff821115612b2557612b2461270e565b5b602082029050602081019050919050565b5f612b48612b4384612b0b565b61276c565b90508083825260208201905060208402830185811115612b6b57612b6a6127b1565b5b835b81811015612b945780612b8088826124d5565b845260208401935050602081019050612b6d565b5050509392505050565b5f82601f830112612bb257612bb161270a565b5b8135612bc2848260208601612b36565b91505092915050565b5f8060408385031215612be157612be0612487565b5b5f83013567ffffffffffffffff811115612bfe57612bfd61248b565b5b612c0a85828601612b9e565b925050602083013567ffffffffffffffff811115612c2b57612c2a61248b565b5b612c378582860161281d565b9150509250929050565b5f81519050919050565b5f82825260208201905092915050565b5f819050602082019050919050565b612c73816124e9565b82525050565b5f612c848383612c6a565b60208301905092915050565b5f602082019050919050565b5f612ca682612c41565b612cb08185612c4b565b9350612cbb83612c5b565b805f5b83811015612ceb578151612cd28882612c79565b9750612cdd83612c90565b925050600181019050612cbe565b5085935050505092915050565b5f6020820190508181035f830152612d108184612c9c565b905092915050565b5f8060408385031215612d2e57612d2d612487565b5b5f612d3b858286016124d5565b925050602083013567ffffffffffffffff811115612d5c57612d5b61248b565b5b612d68858286016128cd565b9150509250929050565b5f819050919050565b612d8481612d72565b82525050565b5f602082019050612d9d5f830184612d7b565b92915050565b5f805f8060808587031215612dbb57612dba612487565b5b5f612dc8878288016124d5565b9450506020612dd987828801612508565b9350506040612dea87828801612508565b925050606085013567ffffffffffffffff811115612e0b57612e0a61248b565b5b612e17878288016128cd565b91505092959194509250565b5f67ffffffffffffffff821115612e3d57612e3c61270e565b5b612e46826126a2565b9050602081019050919050565b5f612e65612e6084612e23565b61276c565b905082815260208101848484011115612e8157612e8061284a565b5b612e8c84828561287e565b509392505050565b5f82601f830112612ea857612ea761270a565b5b8135612eb8848260208601612e53565b91505092915050565b5f8060408385031215612ed757612ed6612487565b5b5f83013567ffffffffffffffff811115612ef457612ef361248b565b5b612f0085828601612e94565b9250506020612f11858286016124d5565b9150509250929050565b612f24816124ae565b82525050565b5f602082019050612f3d5f830184612f1b565b92915050565b5f8060408385031215612f5957612f58612487565b5b5f612f66858286016124d5565b9250506020612f77858286016129c8565b9150509250929050565b5f608082019050612f945f83018761255a565b612fa1602083018661255a565b612fae604083018561260d565b612fbb6060830184612f1b565b95945050505050565b5f8060408385031215612fda57612fd9612487565b5b5f612fe7858286016124d5565b9250506020612ff8858286016124d5565b9150509250929050565b5f805f805f60a0868803121561301b5761301a612487565b5b5f613028888289016124d5565b9550506020613039888289016124d5565b945050604061304a88828901612508565b935050606061305b88828901612508565b925050608086013567ffffffffffffffff81111561307c5761307b61248b565b5b613088888289016128cd565b9150509295509295909350565b5f602082840312156130aa576130a9612487565b5b5f6130b7848285016124d5565b91505092915050565b7f4e487b71000000000000000000000000000000000000000000000000000000005f52602260045260245ffd5b5f600282049050600182168061310457607f821691505b602082108103613117576131166130c0565b5b50919050565b7f4e487b71000000000000000000000000000000000000000000000000000000005f52601160045260245ffd5b5f613154826124e9565b91507fffffffffffffffffffffffffffffffffffffffffffffffffffffffffffffffff82036131865761318561311d565b5b600182019050919050565b5f6040820190506131a45f83018561255a565b6131b1602083018461255a565b9392505050565b7f4e487b71000000000000000000000000000000000000000000000000000000005f52603260045260245ffd5b5f819050919050565b5f67ffffffffffffffff82169050919050565b5f819050919050565b5f61322461321f61321a846131e5565b613201565b6131ee565b9050919050565b6132348161320a565b82525050565b5f60208201905061324d5f83018461322b565b92915050565b7f436f6e74726163742065787069726564000000000000000000000000000000005f82015250565b5f61328760108361266a565b915061329282613253565b602082019050919050565b5f6020820190508181035f8301526132b48161327b565b9050919050565b5f6040820190506132ce5f830185612f1b565b6132db6020830184612f1b565b9392505050565b6132eb81612d72565b81146132f5575f80fd5b50565b5f81519050613306816132e2565b92915050565b5f6020828403121561332157613320612487565b5b5f61332e848285016132f8565b91505092915050565b5f60808201905061334a5f830187612f1b565b613357602083018661255a565b613364604083018561255a565b613371606083018461255a565b95945050505050565b5f613384826124e9565b915061338f836124e9565b92508282019050808211156133a7576133a661311d565b5b92915050565b5f6040820190508181035f8301526133c58185612c9c565b905081810360208301526133d98184612c9c565b90509392505050565b5f81519050919050565b5f82825260208201905092915050565b5f613406826133e2565b61341081856133ec565b935061342081856020860161267a565b613429816126a2565b840191505092915050565b5f60a0820190506134475f830188612f1b565b6134546020830187612f1b565b81810360408301526134668186612c9c565b9050818103606083015261347a8185612c9c565b9050818103608083015261348e81846133fc565b90509695505050505050565b5f815190506134a8816125ad565b92915050565b5f602082840312156134c3576134c2612487565b5b5f6134d08482850161349a565b91505092915050565b5f60a0820190506134ec5f830188612f1b565b6134f96020830187612f1b565b613506604083018661255a565b613513606083018561255a565b818103608083015261352581846133fc565b90509695505050505050565b5f819050815f5260205f209050919050565b5f6020601f8301049050919050565b5f82821b905092915050565b5f6008830261358d7fffffffffffffffffffffffffffffffffffffffffffffffffffffffffffffffff82613552565b6135978683613552565b95508019841693508086168417925050509392505050565b5f6135c96135c46135bf846124e9565b613201565b6124e9565b9050919050565b5f819050919050565b6135e2836135af565b6135f66135ee826135d0565b84845461355e565b825550505050565b5f90565b61360a6135fe565b6136158184846135d9565b505050565b5b818110156136385761362d5f82613602565b60018101905061361b565b5050565b601f82111561367d5761364e81613531565b61365784613543565b81016020851015613666578190505b61367a61367285613543565b83018261361a565b50505b505050565b5f82821c905092915050565b5f61369d5f1984600802613682565b1980831691505092915050565b5f6136b5838361368e565b9150826002028217905092915050565b6136ce82612660565b67ffffffffffffffff8111156136e7576136e661270e565b5b6136f182546130ed565b6136fc82828561363c565b5f60209050601f83116001811461372d575f841561371b578287015190505b61372585826136aa565b86555061378c565b601f19841661373b86613531565b5f5b828110156137625784890151825560018201915060208501945060208101905061373d565b8683101561377f578489015161377b601f89168261368e565b8355505b6001600288020188555050505b50505050505056fea264697066735822122041b745a9c4504d9cebfb46a63998814751ca0d3d6bc040de64f8961daf0adc4464736f6c63430008180033",
  "linkReferences": {},
  "deployedLinkReferences": {}
}