{
  "_format": "hh-sol-artifact-1",
  "contractName": "TokenFactory",
  "sourceName": "contracts/TokenFactory.sol",
  "abi": [
    {
      "inputs": [],
      "stateMutability": "nonpayable",
      "type": "constructor"
    },
    {
      "inputs": [
        {
          "internalType": "address",
          "name": "target",
          "type": "address"
        }
      ],
      "name": "AddressEmptyCode",
      "type": "error"
    },
    {
      "inputs": [
        {
          "internalType": "address",
          "name": "implementation",
          "type": "address"
        }
      ],
      "name": "ERC1967InvalidImplementation",
      "type": "error"
    },
    {
      "inputs": [],
      "name": "ERC1967NonPayable",
      "type": "error"
    },
    {
      "inputs": [],
      "name": "FailedCall",
      "type": "error"
    },
    {
      "inputs": [],
      "name": "InvalidInitialization",
      "type": "error"
    },
    {
      "inputs": [],
      "name": "NotInitializing",
      "type": "error"
    },
    {
      "inputs": [
        {
          "internalType": "address",
          "name": "owner",
          "type": "address"
        }
      ],
      "name": "OwnableInvalidOwner",
      "type": "error"
    },
    {
      "inputs": [
        {
          "internalType": "address",
          "name": "account",
          "type": "address"
        }
      ],
      "name": "OwnableUnauthorizedAccount",
      "type": "error"
    },
    {
      "inputs": [],
      "name": "UUPSUnauthorizedCallContext",
      "type": "error"
    },
    {
      "inputs": [
        {
          "internalType": "bytes32",
          "name": "slot",
          "type": "bytes32"
        }
      ],
      "name": "UUPSUnsupportedProxiableUUID",
      "type": "error"
    },
    {
      "anonymous": false,
      "inputs": [
        {
          "indexed": false,
          "internalType": "uint64",
          "name": "version",
          "type": "uint64"
        }
      ],
      "name": "Initialized",
      "type": "event"
    },
    {
      "anonymous": false,
      "inputs": [
        {
          "indexed": true,
          "internalType": "address",
          "name": "previousOwner",
          "type": "address"
        },
        {
          "indexed": true,
          "internalType": "address",
          "name": "newOwner",
          "type": "address"
        }
      ],
      "name": "OwnershipTransferred",
      "type": "event"
    },
    {
      "anonymous": false,
      "inputs": [
        {
          "indexed": true,
          "internalType": "address",
          "name": "tokenAddress",
          "type": "address"
        },
        {
          "indexed": false,
          "internalType": "string",
          "name": "name",
          "type": "string"
        },
        {
          "indexed": false,
          "internalType": "string",
          "name": "symbol",
          "type": "string"
        }
      ],
      "name": "RealEstateCreated",
      "type": "event"
    },
    {
      "anonymous": false,
      "inputs": [
        {
          "indexed": true,
          "internalType": "address",
          "name": "tokenAddress",
          "type": "address"
        },
        {
          "indexed": false,
          "internalType": "string",
          "name": "assetType",
          "type": "string"
        },
        {
          "indexed": false,
          "internalType": "string",
          "name": "symbol",
          "type": "string"
        }
      ],
      "name": "TokenCreated",
      "type": "event"
    },
    {
      "anonymous": false,
      "inputs": [
        {
          "indexed": true,
          "internalType": "address",
          "name": "implementation",
          "type": "address"
        }
      ],
      "name": "Upgraded",
      "type": "event"
    },
    {
      "inputs": [],
      "name": "UPGRADE_INTERFACE_VERSION",
      "outputs": [
        {
          "internalType": "string",
          "name": "",
          "type": "string"
        }
      ],
      "stateMutability": "view",
      "type": "function"
    },
    {
      "inputs": [],
      "name": "bondImplementation",
      "outputs": [
        {
          "internalType": "address",
          "name": "",
          "type": "address"
        }
      ],
      "stateMutability": "view",
      "type": "function"
    },
    {
      "inputs": [
        {
          "internalType": "string",
          "name": "name",
          "type": "string"
        },
        {
          "internalType": "string",
          "name": "symbol",
          "type": "string"
        },
        {
          "internalType": "uint256",
          "name": "faceValue",
          "type": "uint256"
        },
        {
          "internalType": "uint256",
          "name": "couponRate",
          "type": "uint256"
        },
        {
          "internalType": "uint256",
          "name": "maturityDate",
          "type": "uint256"
        },
        {
          "internalType": "uint256",
          "name": "couponFrequency",
          "type": "uint256"
        }
      ],
      "name": "createBond",
      "outputs": [
        {
          "internalType": "address",
          "name": "",
          "type": "address"
        }
      ],
      "stateMutability": "nonpayable",
      "type": "function"
    },
    {
      "inputs": [
        {
          "internalType": "string",
          "name": "uri",
          "type": "string"
        }
      ],
      "name": "createDerivative",
      "outputs": [
        {
          "internalType": "address",
          "name": "",
          "type": "address"
        }
      ],
      "stateMutability": "nonpayable",
      "type": "function"
    },
    {
      "inputs": [
        {
          "internalType": "string",
          "name": "name",
          "type": "string"
        },
        {
          "internalType": "string",
          "name": "symbol",
          "type": "string"
        },
        {
          "internalType": "uint256",
          "name": "totalShares",
          "type": "uint256"
        }
      ],
      "name": "createEquity",
      "outputs": [
        {
          "internalType": "address",
          "name": "",
          "type": "address"
        }
      ],
      "stateMutability": "nonpayable",
      "type": "function"
    },
    {
      "inputs": [
        {
          "internalType": "string",
          "name": "name",
          "type": "string"
        },
        {
          "internalType": "string",
          "name": "symbol",
          "type": "string"
        }
      ],
      "name": "createRealEstate",
      "outputs": [
        {
          "internalType": "address",
          "name": "",
          "type": "address"
        }
      ],
      "stateMutability": "nonpayable",
      "type": "function"
    },
    {
      "inputs": [],
      "name": "derivativeImplementation",
      "outputs": [
        {
          "internalType": "address",
          "name": "",
          "type": "address"
        }
      ],
      "stateMutability": "view",
      "type": "function"
    },
    {
      "inputs": [],
      "name": "equityImplementation",
      "outputs": [
        {
          "internalType": "address",
          "name": "",
          "type": "address"
        }
      ],
      "stateMutability": "view",
      "type": "function"
    },
    {
      "inputs": [
        {
          "internalType": "address",
          "name": "_equityImpl",
          "type": "address"
        },
        {
          "internalType": "address",
          "name": "_bondImpl",
          "type": "address"
        },
        {
          "internalType": "address",
          "name": "_derivativeImpl",
          "type": "address"
        },
        {
          "internalType": "address",
          "name": "_realEstateImpl",
          "type": "address"
        },
        {
          "internalType": "address",
          "name": "initialOwner",
          "type": "address"
        }
      ],
      "name": "initialize",
      "outputs": [],
      "stateMutability": "nonpayable",
      "type": "function"
    },
    {
      "inputs": [],
      "name": "owner",
      "outputs": [
        {
          "internalType": "address",
          "name": "",
          "type": "address"
        }
      ],
      "stateMutability": "view",
      "type": "function"
    },
    {
      "inputs": [],
      "name": "proxiableUUID",
      "outputs": [
        {
          "internalType": "bytes32",
          "name": "",
          "type": "bytes32"
        }
      ],
      "stateMutability": "view",
      "type": "function"
    },
    {
      "inputs": [],
      "name": "realEstateImplementation",
      "outputs": [
        {
          "internalType": "address",
          "name": "",
          "type": "address"
        }
      ],
      "stateMutability": "view",
      "type": "function"
    },
    {
      "inputs": [],
      "name": "renounceOwnership",
      "outputs": [],
      "stateMutability": "nonpayable",
      "type": "function"
    },
    {
      "inputs": [
        {
          "internalType": "address",
          "name": "_equityImpl",
          "type": "address"
        },
        {
          "internalType": "address",
          "name": "_bondImpl",
          "type": "address"
        },
        {
          "internalType": "address",
          "name": "_derivativeImpl",
          "type": "address"
        },
        {
          "internalType": "address",
          "name": "_realEstateImpl",
          "type": "address"
        }
      ],
      "name": "setImplementations",
      "outputs": [],
      "stateMutability": "nonpayable",
      "type": "function"
    },
    {
      "inputs": [
        {
          "internalType": "address",
          "name": "newOwner",
          "type": "address"
        }
      ],
      "name": "transferOwnership",
      "outputs": [],
      "stateMutability": "nonpayable",
      "type": "function"
    },
    {
      "inputs": [
        {
          "internalType": "address",
          "name": "newImplementation",
          "type": "address"
        },
        {
          "internalType": "bytes",
          "name": "data",
          "type": "bytes"
        }
      ],
      "name": "upgradeToAndCall",
      "outputs": [],
      "stateMutability": "payable",
      "type": "function"
    }
  ],
  "bytecode": "0x60a06040523073ffffffffffffffffffffffffffffffffffffffff1660809073ffffffffffffffffffffffffffffffffffffffff1681525034801562000043575f80fd5b50620000546200005a60201b60201c565b620001e1565b5f6200006b6200015e60201b60201c565b9050805f0160089054906101000a900460ff1615620000b6576040517ff92ee8a900000000000000000000000000000000000000000000000000000000815260040160405180910390fd5b67ffffffffffffffff8016815f015f9054906101000a900467ffffffffffffffff1667ffffffffffffffff16146200015b5767ffffffffffffffff815f015f6101000a81548167ffffffffffffffff021916908367ffffffffffffffff1602179055507fc7f505b2f371ae2175ee4913f4499e1f2633a7b5936321eed1cdaeb6115181d267ffffffffffffffff604051620001529190620001c6565b60405180910390a15b50565b5f80620001706200017960201b60201c565b90508091505090565b5f7ff0c57e16840df040f15088dc2f81fe391c3923bec73e23a9662efc9c229c6a005f1b905090565b5f67ffffffffffffffff82169050919050565b620001c081620001a2565b82525050565b5f602082019050620001db5f830184620001b5565b92915050565b608051612da7620002085f395f8181611179015281816111cf01526113990152612da75ff3fe60806040526004361062000109575f3560e01c806360b2fa7611620000965780638f2a7cda11620000605780638f2a7cda1462000368578063ad3cb1cc1462000397578063cb4c945614620003c6578063f2fde38b14620003f55762000109565b806360b2fa7614620002b05780636d1ffdcd14620002dd578063715018a614620003205780638da5cb5b14620003395762000109565b8063435cac2411620000d8578063435cac2414620002035780634f1ef286146200023257806352d1902d14620002525780635e18a80014620002815762000109565b806302d1a5aa146200010d5780631459457a14620001505780633e0de505146200017d5780634246fdf414620001c0575b5f80fd5b34801562000119575f80fd5b5062000138600480360381019062000132919062001ba0565b62000422565b60405162000147919062001c7a565b60405180910390f35b3480156200015c575f80fd5b506200017b600480360381019062000175919062001cc4565b62000603565b005b34801562000189575f80fd5b50620001a86004803603810190620001a2919062001d48565b62000893565b604051620001b7919062001c7a565b60405180910390f35b348015620001cc575f80fd5b50620001eb6004803603810190620001e5919062001e1e565b62000a80565b604051620001fa919062001c7a565b60405180910390f35b3480156200020f575f80fd5b506200021a62000c5c565b60405162000229919062001c7a565b60405180910390f35b6200025060048036038101906200024a919062001f1e565b62000c81565b005b3480156200025e575f80fd5b506200026962000ca6565b60405162000278919062001f9c565b60405180910390f35b3480156200028d575f80fd5b506200029862000cd9565b604051620002a7919062001c7a565b60405180910390f35b348015620002bc575f80fd5b50620002db6004803603810190620002d5919062001fb7565b62000cfc565b005b348015620002e9575f80fd5b5062000308600480360381019062000302919062002026565b62000e0b565b60405162000317919062001c7a565b60405180910390f35b3480156200032c575f80fd5b506200033762000fee565b005b34801562000345575f80fd5b506200035062001005565b6040516200035f919062001c7a565b60405180910390f35b34801562000374575f80fd5b506200037f6200103c565b6040516200038e919062001c7a565b60405180910390f35b348015620003a3575f80fd5b50620003ae62001061565b604051620003bd91906200212d565b60405180910390f35b348015620003d2575f80fd5b50620003dd6200109a565b604051620003ec919062001c7a565b60405180910390f35b34801562000401575f80fd5b506200042060048036038101906200041a91906200214f565b620010bf565b005b5f8073ffffffffffffffffffffffffffffffffffffffff165f8054906101000a900473ffffffffffffffffffffffffffffffffffffffff1673ffffffffffffffffffffffffffffffffffffffff1603620004b3576040517f08c379a0000000000000000000000000000000000000000000000000000000008152600401620004aa90620021cd565b60405180910390fd5b5f84848433604051602401620004cd9493929190620021fe565b6040516020818303038152906040527fbd3a13f6000000000000000000000000000000000000000000000000000000007bffffffffffffffffffffffffffffffffffffffffffffffffffffffff19166020820180517bffffffffffffffffffffffffffffffffffffffffffffffffffffffff838183161783525050505090505f805f9054906101000a900473ffffffffffffffffffffffffffffffffffffffff16826040516200057d90620019f1565b6200058a929190620022b1565b604051809103905ff080158015620005a4573d5f803e3d5ffd5b5090508073ffffffffffffffffffffffffffffffffffffffff167fffc04f682c7b287e4b552dacd4b833d7c33dc0549cd6da84388408e4830c056286604051620005ef919062002331565b60405180910390a280925050509392505050565b5f6200060e6200114a565b90505f815f0160089054906101000a900460ff161590505f825f015f9054906101000a900467ffffffffffffffff1690505f808267ffffffffffffffff16148015620006575750825b90505f60018367ffffffffffffffff161480156200068b57505f3073ffffffffffffffffffffffffffffffffffffffff163b145b9050811580156200069a575080155b15620006d2576040517ff92ee8a900000000000000000000000000000000000000000000000000000000815260040160405180910390fd5b6001855f015f6101000a81548167ffffffffffffffff021916908367ffffffffffffffff160217905550831562000720576001855f0160086101000a81548160ff0219169083151502179055505b6200072b866200115f565b895f806101000a81548173ffffffffffffffffffffffffffffffffffffffff021916908373ffffffffffffffffffffffffffffffffffffffff1602179055508860015f6101000a81548173ffffffffffffffffffffffffffffffffffffffff021916908373ffffffffffffffffffffffffffffffffffffffff1602179055508760025f6101000a81548173ffffffffffffffffffffffffffffffffffffffff021916908373ffffffffffffffffffffffffffffffffffffffff1602179055508660035f6101000a81548173ffffffffffffffffffffffffffffffffffffffff021916908373ffffffffffffffffffffffffffffffffffffffff160217905550831562000887575f855f0160086101000a81548160ff0219169083151502179055507fc7f505b2f371ae2175ee4913f4499e1f2633a7b5936321eed1cdaeb6115181d260016040516200087e9190620023c5565b60405180910390a15b50505050505050505050565b5f8073ffffffffffffffffffffffffffffffffffffffff1660015f9054906101000a900473ffffffffffffffffffffffffffffffffffffffff1673ffffffffffffffffffffffffffffffffffffffff160362000926576040517f08c379a00000000000000000000000000000000000000000000000000000000081526004016200091d90620021cd565b60405180910390fd5b5f87878787878733604051602401620009469796959493929190620023e0565b6040516020818303038152906040527fa6e57d99000000000000000000000000000000000000000000000000000000007bffffffffffffffffffffffffffffffffffffffffffffffffffffffff19166020820180517bffffffffffffffffffffffffffffffffffffffffffffffffffffffff838183161783525050505090505f60015f9054906101000a900473ffffffffffffffffffffffffffffffffffffffff1682604051620009f790620019f1565b62000a04929190620022b1565b604051809103905ff08015801562000a1e573d5f803e3d5ffd5b5090508073ffffffffffffffffffffffffffffffffffffffff167fffc04f682c7b287e4b552dacd4b833d7c33dc0549cd6da84388408e4830c05628960405162000a699190620024b7565b60405180910390a280925050509695505050505050565b5f8073ffffffffffffffffffffffffffffffffffffffff1660025f9054906101000a900473ffffffffffffffffffffffffffffffffffffffff1673ffffffffffffffffffffffffffffffffffffffff160362000b13576040517f08c379a000000000000000000000000000000000000000000000000000000000815260040162000b0a90620021cd565b60405180910390fd5b5f823360405160240162000b29929190620024ee565b6040516020818303038152906040527f7ab4339d000000000000000000000000000000000000000000000000000000007bffffffffffffffffffffffffffffffffffffffffffffffffffffffff19166020820180517bffffffffffffffffffffffffffffffffffffffffffffffffffffffff838183161783525050505090505f60025f9054906101000a900473ffffffffffffffffffffffffffffffffffffffff168260405162000bda90620019f1565b62000be7929190620022b1565b604051809103905ff08015801562000c01573d5f803e3d5ffd5b5090508073ffffffffffffffffffffffffffffffffffffffff167fffc04f682c7b287e4b552dacd4b833d7c33dc0549cd6da84388408e4830c056260405162000c4a90620025bc565b60405180910390a28092505050919050565b60035f9054906101000a900473ffffffffffffffffffffffffffffffffffffffff1681565b62000c8b62001177565b62000c968262001261565b62000ca282826200126e565b5050565b5f62000cb162001397565b7f360894a13ba1a3210667c828492db98dca3e2076cc3735a920a3ca505d382bbc5f1b905090565b5f8054906101000a900473ffffffffffffffffffffffffffffffffffffffff1681565b62000d066200141f565b835f806101000a81548173ffffffffffffffffffffffffffffffffffffffff021916908373ffffffffffffffffffffffffffffffffffffffff1602179055508260015f6101000a81548173ffffffffffffffffffffffffffffffffffffffff021916908373ffffffffffffffffffffffffffffffffffffffff1602179055508160025f6101000a81548173ffffffffffffffffffffffffffffffffffffffff021916908373ffffffffffffffffffffffffffffffffffffffff1602179055508060035f6101000a81548173ffffffffffffffffffffffffffffffffffffffff021916908373ffffffffffffffffffffffffffffffffffffffff16021790555050505050565b5f8073ffffffffffffffffffffffffffffffffffffffff1660035f9054906101000a900473ffffffffffffffffffffffffffffffffffffffff1673ffffffffffffffffffffffffffffffffffffffff160362000e9e576040517f08c379a000000000000000000000000000000000000000000000000000000000815260040162000e9590620021cd565b60405180910390fd5b5f83833360405160240162000eb693929190620025f1565b6040516020818303038152906040527f077f224a000000000000000000000000000000000000000000000000000000007bffffffffffffffffffffffffffffffffffffffffffffffffffffffff19166020820180517bffffffffffffffffffffffffffffffffffffffffffffffffffffffff838183161783525050505090505f60035f9054906101000a900473ffffffffffffffffffffffffffffffffffffffff168260405162000f6790620019f1565b62000f74929190620022b1565b604051809103905ff08015801562000f8e573d5f803e3d5ffd5b5090508073ffffffffffffffffffffffffffffffffffffffff167f09f1095df634641fe8d1e36d537a2e11d5e2e2477d7bfd585bddf725a6c1bd10868660405162000fdb9291906200263a565b60405180910390a2809250505092915050565b62000ff86200141f565b620010035f620014af565b565b5f806200101162001582565b9050805f015f9054906101000a900473ffffffffffffffffffffffffffffffffffffffff1691505090565b60015f9054906101000a900473ffffffffffffffffffffffffffffffffffffffff1681565b6040518060400160405280600581526020017f352e302e3000000000000000000000000000000000000000000000000000000081525081565b60025f9054906101000a900473ffffffffffffffffffffffffffffffffffffffff1681565b620010c96200141f565b5f73ffffffffffffffffffffffffffffffffffffffff168173ffffffffffffffffffffffffffffffffffffffff16036200113c575f6040517f1e4fbdf700000000000000000000000000000000000000000000000000000000815260040162001133919062001c7a565b60405180910390fd5b6200114781620014af565b50565b5f8062001156620015a9565b90508091505090565b62001169620015d2565b620011748162001615565b50565b7f000000000000000000000000000000000000000000000000000000000000000073ffffffffffffffffffffffffffffffffffffffff163073ffffffffffffffffffffffffffffffffffffffff1614806200122757507f000000000000000000000000000000000000000000000000000000000000000073ffffffffffffffffffffffffffffffffffffffff166200120e620016a0565b73ffffffffffffffffffffffffffffffffffffffff1614155b156200125f576040517fe07c8dba00000000000000000000000000000000000000000000000000000000815260040160405180910390fd5b565b6200126b6200141f565b50565b8173ffffffffffffffffffffffffffffffffffffffff166352d1902d6040518163ffffffff1660e01b8152600401602060405180830381865afa925050508015620012d957506040513d601f19601f82011682018060405250810190620012d69190620026a2565b60015b6200131d57816040517f4c9c8ce300000000000000000000000000000000000000000000000000000000815260040162001314919062001c7a565b60405180910390fd5b7f360894a13ba1a3210667c828492db98dca3e2076cc3735a920a3ca505d382bbc5f1b81146200138657806040517faa1d49a40000000000000000000000000000000000000000000000000000000081526004016200137d919062001f9c565b60405180910390fd5b620013928383620016f5565b505050565b7f000000000000000000000000000000000000000000000000000000000000000073ffffffffffffffffffffffffffffffffffffffff163073ffffffffffffffffffffffffffffffffffffffff16146200141d576040517fe07c8dba00000000000000000000000000000000000000000000000000000000815260040160405180910390fd5b565b620014296200176f565b73ffffffffffffffffffffffffffffffffffffffff166200144962001005565b73ffffffffffffffffffffffffffffffffffffffff1614620014ad576200146f6200176f565b6040517f118cdaa7000000000000000000000000000000000000000000000000000000008152600401620014a4919062001c7a565b60405180910390fd5b565b5f620014ba62001582565b90505f815f015f9054906101000a900473ffffffffffffffffffffffffffffffffffffffff16905082825f015f6101000a81548173ffffffffffffffffffffffffffffffffffffffff021916908373ffffffffffffffffffffffffffffffffffffffff1602179055508273ffffffffffffffffffffffffffffffffffffffff168173ffffffffffffffffffffffffffffffffffffffff167f8be0079c531659141344cd1fd0a4f28419497f9722a3daafe3b4186f6b6457e060405160405180910390a3505050565b5f7f9016d09d72d40fdae2fd8ceac6b6234c7706214fd39c1cd1e609a0528c199300905090565b5f7ff0c57e16840df040f15088dc2f81fe391c3923bec73e23a9662efc9c229c6a005f1b905090565b620015dc62001776565b62001613576040517fd7e6bcf800000000000000000000000000000000000000000000000000000000815260040160405180910390fd5b565b6200161f620015d2565b5f73ffffffffffffffffffffffffffffffffffffffff168173ffffffffffffffffffffffffffffffffffffffff160362001692575f6040517f1e4fbdf700000000000000000000000000000000000000000000000000000000815260040162001689919062001c7a565b60405180910390fd5b6200169d81620014af565b50565b5f620016ce7f360894a13ba1a3210667c828492db98dca3e2076cc3735a920a3ca505d382bbc5f1b62001796565b5f015f9054906101000a900473ffffffffffffffffffffffffffffffffffffffff16905090565b62001700826200179f565b8173ffffffffffffffffffffffffffffffffffffffff167fbc7cd75a20ee27fd9adebab32041f755214dbc6bffa90cc0225b39da2e5c2d3b60405160405180910390a25f8151111562001760576200175982826200186d565b506200176b565b6200176a62001971565b5b5050565b5f33905090565b5f620017816200114a565b5f0160089054906101000a900460ff16905090565b5f819050919050565b5f8173ffffffffffffffffffffffffffffffffffffffff163b03620017fd57806040517f4c9c8ce3000000000000000000000000000000000000000000000000000000008152600401620017f4919062001c7a565b60405180910390fd5b806200182b7f360894a13ba1a3210667c828492db98dca3e2076cc3735a920a3ca505d382bbc5f1b62001796565b5f015f6101000a81548173ffffffffffffffffffffffffffffffffffffffff021916908373ffffffffffffffffffffffffffffffffffffffff16021790555050565b60605f6200187c8484620019ae565b9050808015620018b657505f62001892620019c2565b1180620018b557505f8473ffffffffffffffffffffffffffffffffffffffff163b115b5b15620018cf57620018c6620019c9565b9150506200196b565b80156200191557836040517f9996b3150000000000000000000000000000000000000000000000000000000081526004016200190c919062001c7a565b60405180910390fd5b5f62001920620019c2565b1115620019375762001931620019e6565b62001969565b6040517fd6bda27500000000000000000000000000000000000000000000000000000000815260040160405180910390fd5b505b92915050565b5f341115620019ac576040517fb398979f00000000000000000000000000000000000000000000000000000000815260040160405180910390fd5b565b5f805f835160208501865af4905092915050565b5f3d905090565b606060405190503d81523d5f602083013e3d602001810160405290565b6040513d5f823e3d81fd5b61069f80620026d383390190565b5f604051905090565b5f80fd5b5f80fd5b5f80fd5b5f80fd5b5f601f19601f8301169050919050565b7f4e487b71000000000000000000000000000000000000000000000000000000005f52604160045260245ffd5b62001a608262001a18565b810181811067ffffffffffffffff8211171562001a825762001a8162001a28565b5b80604052505050565b5f62001a96620019ff565b905062001aa4828262001a55565b919050565b5f67ffffffffffffffff82111562001ac65762001ac562001a28565b5b62001ad18262001a18565b9050602081019050919050565b828183375f83830152505050565b5f62001b0262001afc8462001aa9565b62001a8b565b90508281526020810184848401111562001b215762001b2062001a14565b5b62001b2e84828562001ade565b509392505050565b5f82601f83011262001b4d5762001b4c62001a10565b5b813562001b5f84826020860162001aec565b91505092915050565b5f819050919050565b62001b7c8162001b68565b811462001b87575f80fd5b50565b5f8135905062001b9a8162001b71565b92915050565b5f805f6060848603121562001bba5762001bb962001a08565b5b5f84013567ffffffffffffffff81111562001bda5762001bd962001a0c565b5b62001be88682870162001b36565b935050602084013567ffffffffffffffff81111562001c0c5762001c0b62001a0c565b5b62001c1a8682870162001b36565b925050604062001c2d8682870162001b8a565b9150509250925092565b5f73ffffffffffffffffffffffffffffffffffffffff82169050919050565b5f62001c628262001c37565b9050919050565b62001c748162001c56565b82525050565b5f60208201905062001c8f5f83018462001c69565b92915050565b62001ca08162001c56565b811462001cab575f80fd5b50565b5f8135905062001cbe8162001c95565b92915050565b5f805f805f60a0868803121562001ce05762001cdf62001a08565b5b5f62001cef8882890162001cae565b955050602062001d028882890162001cae565b945050604062001d158882890162001cae565b935050606062001d288882890162001cae565b925050608062001d3b8882890162001cae565b9150509295509295909350565b5f805f805f8060c0878903121562001d655762001d6462001a08565b5b5f87013567ffffffffffffffff81111562001d855762001d8462001a0c565b5b62001d9389828a0162001b36565b965050602087013567ffffffffffffffff81111562001db75762001db662001a0c565b5b62001dc589828a0162001b36565b955050604062001dd889828a0162001b8a565b945050606062001deb89828a0162001b8a565b935050608062001dfe89828a0162001b8a565b92505060a062001e1189828a0162001b8a565b9150509295509295509295565b5f6020828403121562001e365762001e3562001a08565b5b5f82013567ffffffffffffffff81111562001e565762001e5562001a0c565b5b62001e648482850162001b36565b91505092915050565b5f67ffffffffffffffff82111562001e8a5762001e8962001a28565b5b62001e958262001a18565b9050602081019050919050565b5f62001eb862001eb28462001e6d565b62001a8b565b90508281526020810184848401111562001ed75762001ed662001a14565b5b62001ee484828562001ade565b509392505050565b5f82601f83011262001f035762001f0262001a10565b5b813562001f1584826020860162001ea2565b91505092915050565b5f806040838503121562001f375762001f3662001a08565b5b5f62001f468582860162001cae565b925050602083013567ffffffffffffffff81111562001f6a5762001f6962001a0c565b5b62001f788582860162001eec565b9150509250929050565b5f819050919050565b62001f968162001f82565b82525050565b5f60208201905062001fb15f83018462001f8b565b92915050565b5f805f806080858703121562001fd25762001fd162001a08565b5b5f62001fe18782880162001cae565b945050602062001ff48782880162001cae565b9350506040620020078782880162001cae565b92505060606200201a8782880162001cae565b91505092959194509250565b5f80604083850312156200203f576200203e62001a08565b5b5f83013567ffffffffffffffff8111156200205f576200205e62001a0c565b5b6200206d8582860162001b36565b925050602083013567ffffffffffffffff81111562002091576200209062001a0c565b5b6200209f8582860162001b36565b9150509250929050565b5f81519050919050565b5f82825260208201905092915050565b5f5b83811015620020e2578082015181840152602081019050620020c5565b5f8484015250505050565b5f620020f982620020a9565b620021058185620020b3565b935062002117818560208601620020c3565b620021228162001a18565b840191505092915050565b5f6020820190508181035f830152620021478184620020ed565b905092915050565b5f6020828403121562002167576200216662001a08565b5b5f620021768482850162001cae565b91505092915050565b7f496d706c656d656e746174696f6e206e6f7420736574000000000000000000005f82015250565b5f620021b5601683620020b3565b9150620021c2826200217f565b602082019050919050565b5f6020820190508181035f830152620021e681620021a7565b9050919050565b620021f88162001b68565b82525050565b5f6080820190508181035f830152620022188187620020ed565b905081810360208301526200222e8186620020ed565b90506200223f6040830185620021ed565b6200224e606083018462001c69565b95945050505050565b5f81519050919050565b5f82825260208201905092915050565b5f6200227d8262002257565b62002289818562002261565b93506200229b818560208601620020c3565b620022a68162001a18565b840191505092915050565b5f604082019050620022c65f83018562001c69565b8181036020830152620022da818462002271565b90509392505050565b7f45717569747900000000000000000000000000000000000000000000000000005f82015250565b5f62002319600683620020b3565b91506200232682620022e3565b602082019050919050565b5f6040820190508181035f8301526200234a816200230b565b90508181036020830152620023608184620020ed565b905092915050565b5f819050919050565b5f67ffffffffffffffff82169050919050565b5f819050919050565b5f620023ad620023a7620023a18462002368565b62002384565b62002371565b9050919050565b620023bf816200238d565b82525050565b5f602082019050620023da5f830184620023b4565b92915050565b5f60e0820190508181035f830152620023fa818a620020ed565b90508181036020830152620024108189620020ed565b9050620024216040830188620021ed565b620024306060830187620021ed565b6200243f6080830186620021ed565b6200244e60a0830185620021ed565b6200245d60c083018462001c69565b98975050505050505050565b7f426f6e64000000000000000000000000000000000000000000000000000000005f82015250565b5f6200249f600483620020b3565b9150620024ac8262002469565b602082019050919050565b5f6040820190508181035f830152620024d08162002491565b90508181036020830152620024e68184620020ed565b905092915050565b5f6040820190508181035f830152620025088185620020ed565b905062002519602083018462001c69565b9392505050565b7f44657269766174697665000000000000000000000000000000000000000000005f82015250565b5f62002556600a83620020b3565b9150620025638262002520565b602082019050919050565b7f44455249564154495645000000000000000000000000000000000000000000005f82015250565b5f620025a4600a83620020b3565b9150620025b1826200256e565b602082019050919050565b5f6040820190508181035f830152620025d58162002548565b90508181036020830152620025ea8162002596565b9050919050565b5f6060820190508181035f8301526200260b8186620020ed565b90508181036020830152620026218185620020ed565b905062002632604083018462001c69565b949350505050565b5f6040820190508181035f830152620026548185620020ed565b905081810360208301526200266a8184620020ed565b90509392505050565b6200267e8162001f82565b811462002689575f80fd5b50565b5f815190506200269c8162002673565b92915050565b5f60208284031215620026ba57620026b962001a08565b5b5f620026c9848285016200268c565b9150509291505056fe608060405260405161069f38038061069f8339818101604052810190610025919061053d565b61003361008e60201b60201c565b15801561004057505f8151145b15610077576040517fc28a273c00000000000000000000000000000000000000000000000000000000815260040160405180910390fd5b610087828261009260201b60201c565b50506105bf565b5f90565b6100a18261011660201b60201c565b8173ffffffffffffffffffffffffffffffffffffffff167fbc7cd75a20ee27fd9adebab32041f755214dbc6bffa90cc0225b39da2e5c2d3b60405160405180910390a25f81511115610103576100fd82826101e560201b60201c565b50610112565b6101116102f460201b60201c565b5b5050565b5f8173ffffffffffffffffffffffffffffffffffffffff163b0361017157806040517f4c9c8ce300000000000000000000000000000000000000000000000000000000815260040161016891906105a6565b60405180910390fd5b806101a37f360894a13ba1a3210667c828492db98dca3e2076cc3735a920a3ca505d382bbc5f1b61033060201b60201c565b5f015f6101000a81548173ffffffffffffffffffffffffffffffffffffffff021916908373ffffffffffffffffffffffffffffffffffffffff16021790555050565b60605f6101f8848461033960201b60201c565b905080801561023457505f61021161034d60201b60201c565b118061023357505f8473ffffffffffffffffffffffffffffffffffffffff163b115b5b1561024f5761024761035460201b60201c565b9150506102ee565b801561029257836040517f9996b31500000000000000000000000000000000000000000000000000000000815260040161028991906105a6565b60405180910390fd5b5f6102a161034d60201b60201c565b11156102ba576102b561037160201b60201c565b6102ec565b6040517fd6bda27500000000000000000000000000000000000000000000000000000000815260040160405180910390fd5b505b92915050565b5f34111561032e576040517fb398979f00000000000000000000000000000000000000000000000000000000815260040160405180910390fd5b565b5f819050919050565b5f805f835160208501865af4905092915050565b5f3d905090565b606060405190503d81523d5f602083013e3d602001810160405290565b6040513d5f823e3d81fd5b5f604051905090565b5f80fd5b5f80fd5b5f73ffffffffffffffffffffffffffffffffffffffff82169050919050565b5f6103b68261038d565b9050919050565b6103c6816103ac565b81146103d0575f80fd5b50565b5f815190506103e1816103bd565b92915050565b5f80fd5b5f80fd5b5f601f19601f8301169050919050565b7f4e487b71000000000000000000000000000000000000000000000000000000005f52604160045260245ffd5b610435826103ef565b810181811067ffffffffffffffff82111715610454576104536103ff565b5b80604052505050565b5f61046661037c565b9050610472828261042c565b919050565b5f67ffffffffffffffff821115610491576104906103ff565b5b61049a826103ef565b9050602081019050919050565b5f5b838110156104c45780820151818401526020810190506104a9565b5f8484015250505050565b5f6104e16104dc84610477565b61045d565b9050828152602081018484840111156104fd576104fc6103eb565b5b6105088482856104a7565b509392505050565b5f82601f830112610524576105236103e7565b5b81516105348482602086016104cf565b91505092915050565b5f806040838503121561055357610552610385565b5b5f610560858286016103d3565b925050602083015167ffffffffffffffff81111561058157610580610389565b5b61058d85828601610510565b9150509250929050565b6105a0816103ac565b82525050565b5f6020820190506105b95f830184610597565b92915050565b60d4806105cb5f395ff3fe6080604052600a600c565b005b60186014601a565b6026565b565b5f60216044565b905090565b365f80375f80365f845af43d5f803e805f81146040573d5ff35b3d5ffd5b5f606e7f360894a13ba1a3210667c828492db98dca3e2076cc3735a920a3ca505d382bbc5f1b6095565b5f015f9054906101000a900473ffffffffffffffffffffffffffffffffffffffff16905090565b5f81905091905056fea2646970667358221220d6db11b0730e6ff43695684b918c8b5d37670debf7d7f01bc597eb4a622101f264736f6c63430008180033a26469706673582212203f02f1a35624c8d9fa5b7813e80ae2d7f1ec503ddc24bc55596fc9ca761764b064736f6c63430008180033",
  "linkReferences": {},
  "deployedLinkReferences": {}
}