{
  "_format": "hh-sol-artifact-1",
  "contractName": "RealEstateToken",
  "sourceName": "contracts/RealEstateToken.sol",
  "abi": [
    {
      "inputs": [],
      "stateMutability": "nonpayable",
      "type": "constructor"
    },
    {
      "inputs": [
        {
          "internalType": "address",
          "name": "target",
          "type": "address"
        }
      ],
      "name": "AddressEmptyCode",
      "type": "error"
    },
    {
      "inputs": [
        {
          "internalType": "address",
          "name": "implementation",
          "type": "address"
        }
      ],
      "name": "ERC1967InvalidImplementation",
      "type": "error"
    },
    {
      "inputs": [],
      "name": "ERC1967NonPayable",
      "type": "error"
    },
    {
      "inputs": [
        {
          "internalType": "address",
          "name": "sender",
          "type": "address"
        },
        {
          "internalType": "uint256",
          "name": "tokenId",
          "type": "uint256"
        },
        {
          "internalType": "address",
          "name": "owner",
          "type": "address"
        }
      ],
      "name": "ERC721IncorrectOwner",
      "type": "error"
    },
    {
      "inputs": [
        {
          "internalType": "address",
          "name": "operator",
          "type": "address"
        },
        {
          "internalType": "uint256",
          "name": "tokenId",
          "type": "uint256"
        }
      ],
      "name": "ERC721InsufficientApproval",
      "type": "error"
    },
    {
      "inputs": [
        {
          "internalType": "address",
          "name": "approver",
          "type": "address"
        }
      ],
      "name": "ERC721InvalidApprover",
      "type": "error"
    },
    {
      "inputs": [
        {
          "internalType": "address",
          "name": "operator",
          "type": "address"
        }
      ],
      "name": "ERC721InvalidOperator",
      "type": "error"
    },
    {
      "inputs": [
        {
          "internalType": "address",
          "name": "owner",
          "type": "address"
        }
      ],
      "name": "ERC721InvalidOwner",
      "type": "error"
    },
    {
      "inputs": [
        {
          "internalType": "address",
          "name": "receiver",
          "type": "address"
        }
      ],
      "name": "ERC721InvalidReceiver",
      "type": "error"
    },
    {
      "inputs": [
        {
          "internalType": "address",
          "name": "sender",
          "type": "address"
        }
      ],
      "name": "ERC721InvalidSender",
      "type": "error"
    },
    {
      "inputs": [
        {
          "internalType": "uint256",
          "name": "tokenId",
          "type": "uint256"
        }
      ],
      "name": "ERC721NonexistentToken",
      "type": "error"
    },
    {
      "inputs": [],
      "name": "FailedCall",
      "type": "error"
    },
    {
      "inputs": [],
      "name": "InvalidInitialization",
      "type": "error"
    },
    {
      "inputs": [],
      "name": "NotInitializing",
      "type": "error"
    },
    {
      "inputs": [
        {
          "internalType": "address",
          "name": "owner",
          "type": "address"
        }
      ],
      "name": "OwnableInvalidOwner",
      "type": "error"
    },
    {
      "inputs": [
        {
          "internalType": "address",
          "name": "account",
          "type": "address"
        }
      ],
      "name": "OwnableUnauthorizedAccount",
      "type": "error"
    },
    {
      "inputs": [],
      "name": "UUPSUnauthorizedCallContext",
      "type": "error"
    },
    {
      "inputs": [
        {
          "internalType": "bytes32",
          "name": "slot",
          "type": "bytes32"
        }
      ],
      "name": "UUPSUnsupportedProxiableUUID",
      "type": "error"
    },
    {
      "anonymous": false,
      "inputs": [
        {
          "indexed": true,
          "internalType": "address",
          "name": "owner",
          "type": "address"
        },
        {
          "indexed": true,
          "internalType": "address",
          "name": "approved",
          "type": "address"
        },
        {
          "indexed": true,
          "internalType": "uint256",
          "name": "tokenId",
          "type": "uint256"
        }
      ],
      "name": "Approval",
      "type": "event"
    },
    {
      "anonymous": false,
      "inputs": [
        {
          "indexed": true,
          "internalType": "address",
          "name": "owner",
          "type": "address"
        },
        {
          "indexed": true,
          "internalType": "address",
          "name": "operator",
          "type": "address"
        },
        {
          "indexed": false,
          "internalType": "bool",
          "name": "approved",
          "type": "bool"
        }
      ],
      "name": "ApprovalForAll",
      "type": "event"
    },
    {
      "anonymous": false,
      "inputs": [
        {
          "indexed": false,
          "internalType": "uint256",
          "name": "_fromTokenId",
          "type": "uint256"
        },
        {
          "indexed": false,
          "internalType": "uint256",
          "name": "_toTokenId",
          "type": "uint256"
        }
      ],
      "name": "BatchMetadataUpdate",
      "type": "event"
    },
    {
      "anonymous": false,
      "inputs": [
        {
          "indexed": false,
          "internalType": "uint64",
          "name": "version",
          "type": "uint64"
        }
      ],
      "name": "Initialized",
      "type": "event"
    },
    {
      "anonymous": false,
      "inputs": [
        {
          "indexed": false,
          "internalType": "uint256",
          "name": "_tokenId",
          "type": "uint256"
        }
      ],
      "name": "MetadataUpdate",
      "type": "event"
    },
    {
      "anonymous": false,
      "inputs": [
        {
          "indexed": true,
          "internalType": "address",
          "name": "previousOwner",
          "type": "address"
        },
        {
          "indexed": true,
          "internalType": "address",
          "name": "newOwner",
          "type": "address"
        }
      ],
      "name": "OwnershipTransferred",
      "type": "event"
    },
    {
      "anonymous": false,
      "inputs": [
        {
          "indexed": true,
          "internalType": "address",
          "name": "from",
          "type": "address"
        },
        {
          "indexed": true,
          "internalType": "address",
          "name": "to",
          "type": "address"
        },
        {
          "indexed": true,
          "internalType": "uint256",
          "name": "tokenId",
          "type": "uint256"
        }
      ],
      "name": "Transfer",
      "type": "event"
    },
    {
      "anonymous": false,
      "inputs": [
        {
          "indexed": true,
          "internalType": "address",
          "name": "implementation",
          "type": "address"
        }
      ],
      "name": "Upgraded",
      "type": "event"
    },
    {
      "inputs": [],
      "name": "UPGRADE_INTERFACE_VERSION",
      "outputs": [
        {
          "internalType": "string",
          "name": "",
          "type": "string"
        }
      ],
      "stateMutability": "view",
      "type": "function"
    },
    {
      "inputs": [
        {
          "internalType": "address",
          "name": "to",
          "type": "address"
        },
        {
          "internalType": "uint256",
          "name": "tokenId",
          "type": "uint256"
        }
      ],
      "name": "approve",
      "outputs": [],
      "stateMutability": "nonpayable",
      "type": "function"
    },
    {
      "inputs": [
        {
          "internalType": "address",
          "name": "owner",
          "type": "address"
        }
      ],
      "name": "balanceOf",
      "outputs": [
        {
          "internalType": "uint256",
          "name": "",
          "type": "uint256"
        }
      ],
      "stateMutability": "view",
      "type": "function"
    },
    {
      "inputs": [
        {
          "internalType": "uint256",
          "name": "tokenId",
          "type": "uint256"
        }
      ],
      "name": "getApproved",
      "outputs": [
        {
          "internalType": "address",
          "name": "",
          "type": "address"
        }
      ],
      "stateMutability": "view",
      "type": "function"
    },
    {
      "inputs": [
        {
          "internalType": "string",
          "name": "name",
          "type": "string"
        },
        {
          "internalType": "string",
          "name": "symbol",
          "type": "string"
        },
        {
          "internalType": "address",
          "name": "initialOwner",
          "type": "address"
        }
      ],
      "name": "initialize",
      "outputs": [],
      "stateMutability": "nonpayable",
      "type": "function"
    },
    {
      "inputs": [
        {
          "internalType": "address",
          "name": "owner",
          "type": "address"
        },
        {
          "internalType": "address",
          "name": "operator",
          "type": "address"
        }
      ],
      "name": "isApprovedForAll",
      "outputs": [
        {
          "internalType": "bool",
          "name": "",
          "type": "bool"
        }
      ],
      "stateMutability": "view",
      "type": "function"
    },
    {
      "inputs": [],
      "name": "name",
      "outputs": [
        {
          "internalType": "string",
          "name": "",
          "type": "string"
        }
      ],
      "stateMutability": "view",
      "type": "function"
    },
    {
      "inputs": [],
      "name": "nextTokenId",
      "outputs": [
        {
          "internalType": "uint256",
          "name": "",
          "type": "uint256"
        }
      ],
      "stateMutability": "view",
      "type": "function"
    },
    {
      "inputs": [],
      "name": "owner",
      "outputs": [
        {
          "internalType": "address",
          "name": "",
          "type": "address"
        }
      ],
      "stateMutability": "view",
      "type": "function"
    },
    {
      "inputs": [
        {
          "internalType": "uint256",
          "name": "tokenId",
          "type": "uint256"
        }
      ],
      "name": "ownerOf",
      "outputs": [
        {
          "internalType": "address",
          "name": "",
          "type": "address"
        }
      ],
      "stateMutability": "view",
      "type": "function"
    },
    {
      "inputs": [],
      "name": "proxiableUUID",
      "outputs": [
        {
          "internalType": "bytes32",
          "name": "",
          "type": "bytes32"
        }
      ],
      "stateMutability": "view",
      "type": "function"
    },
    {
      "inputs": [],
      "name": "renounceOwnership",
      "outputs": [],
      "stateMutability": "nonpayable",
      "type": "function"
    },
    {
      "inputs": [
        {
          "internalType": "address",
          "name": "to",
          "type": "address"
        },
        {
          "internalType": "string",
          "name": "uri",
          "type": "string"
        }
      ],
      "name": "safeMint",
      "outputs": [],
      "stateMutability": "nonpayable",
      "type": "function"
    },
    {
      "inputs": [
        {
          "internalType": "address",
          "name": "from",
          "type": "address"
        },
        {
          "internalType": "address",
          "name": "to",
          "type": "address"
        },
        {
          "internalType": "uint256",
          "name": "tokenId",
          "type": "uint256"
        }
      ],
      "name": "safeTransferFrom",
      "outputs": [],
      "stateMutability": "nonpayable",
      "type": "function"
    },
    {
      "inputs": [
        {
          "internalType": "address",
          "name": "from",
          "type": "address"
        },
        {
          "internalType": "address",
          "name": "to",
          "type": "address"
        },
        {
          "internalType": "uint256",
          "name": "tokenId",
          "type": "uint256"
        },
        {
          "internalType": "bytes",
          "name": "data",
          "type": "bytes"
        }
      ],
      "name": "safeTransferFrom",
      "outputs": [],
      "stateMutability": "nonpayable",
      "type": "function"
    },
    {
      "inputs": [
        {
          "internalType": "address",
          "name": "operator",
          "type": "address"
        },
        {
          "internalType": "bool",
          "name": "approved",
          "type": "bool"
        }
      ],
      "name": "setApprovalForAll",
      "outputs": [],
      "stateMutability": "nonpayable",
      "type": "function"
    },
    {
      "inputs": [
        {
          "internalType": "bytes4",
          "name": "interfaceId",
          "type": "bytes4"
        }
      ],
      "name": "supportsInterface",
      "outputs": [
        {
          "internalType": "bool",
          "name": "",
          "type": "bool"
        }
      ],
      "stateMutability": "view",
      "type": "function"
    },
    {
      "inputs": [],
      "name": "symbol",
      "outputs": [
        {
          "internalType": "string",
          "name": "",
          "type": "string"
        }
      ],
      "stateMutability": "view",
      "type": "function"
    },
    {
      "inputs": [
        {
          "internalType": "uint256",
          "name": "tokenId",
          "type": "uint256"
        }
      ],
      "name": "tokenURI",
      "outputs": [
        {
          "internalType": "string",
          "name": "",
          "type": "string"
        }
      ],
      "stateMutability": "view",
      "type": "function"
    },
    {
      "inputs": [
        {
          "internalType": "address",
          "name": "from",
          "type": "address"
        },
        {
          "internalType": "address",
          "name": "to",
          "type": "address"
        },
        {
          "internalType": "uint256",
          "name": "tokenId",
          "type": "uint256"
        }
      ],
      "name": "transferFrom",
      "outputs": [],
      "stateMutability": "nonpayable",
      "type": "function"
    },
    {
      "inputs": [
        {
          "internalType": "address",
          "name": "newOwner",
          "type": "address"
        }
      ],
      "name": "transferOwnership",
      "outputs": [],
      "stateMutability": "nonpayable",
      "type": "function"
    },
    {
      "inputs": [
        {
          "internalType": "address",
          "name": "newImplementation",
          "type": "address"
        },
        {
          "internalType": "bytes",
          "name": "data",
          "type": "bytes"
        }
      ],
      "name": "upgradeToAndCall",
      "outputs": [],
      "stateMutability": "payable",
      "type": "function"
    }
  ],
  "bytecode": "0x60a06040523073ffffffffffffffffffffffffffffffffffffffff1660809073ffffffffffffffffffffffffffffffffffffffff1681525034801562000043575f80fd5b50620000546200005a60201b60201c565b620001e1565b5f6200006b6200015e60201b60201c565b9050805f0160089054906101000a900460ff1615620000b6576040517ff92ee8a900000000000000000000000000000000000000000000000000000000815260040160405180910390fd5b67ffffffffffffffff8016815f015f9054906101000a900467ffffffffffffffff1667ffffffffffffffff16146200015b5767ffffffffffffffff815f015f6101000a81548167ffffffffffffffff021916908367ffffffffffffffff1602179055507fc7f505b2f371ae2175ee4913f4499e1f2633a7b5936321eed1cdaeb6115181d267ffffffffffffffff604051620001529190620001c6565b60405180910390a15b50565b5f80620001706200017960201b60201c565b90508091505090565b5f7ff0c57e16840df040f15088dc2f81fe391c3923bec73e23a9662efc9c229c6a005f1b905090565b5f67ffffffffffffffff82169050919050565b620001c081620001a2565b82525050565b5f602082019050620001db5f830184620001b5565b92915050565b608051613432620002085f395f8181611062015281816110b7015261127101526134325ff3fe608060405260043610610134575f3560e01c8063715018a6116100aa578063ad3cb1cc1161006e578063ad3cb1cc146103f4578063b88d4fde1461041e578063c87b56dd14610446578063d204c45e14610482578063e985e9c5146104aa578063f2fde38b146104e657610134565b8063715018a61461033857806375794a3c1461034e5780638da5cb5b1461037857806395d89b41146103a2578063a22cb465146103cc57610134565b806323b872dd116100fc57806323b872dd1461022a57806342842e0e146102525780634f1ef2861461027a57806352d1902d146102965780636352211e146102c057806370a08231146102fc57610134565b806301ffc9a71461013857806306fdde0314610174578063077f224a1461019e578063081812fc146101c6578063095ea7b314610202575b5f80fd5b348015610143575f80fd5b5061015e6004803603810190610159919061271e565b61050e565b60405161016b9190612763565b60405180910390f35b34801561017f575f80fd5b5061018861051f565b6040516101959190612806565b60405180910390f35b3480156101a9575f80fd5b506101c460048036038101906101bf91906129ac565b6105bc565b005b3480156101d1575f80fd5b506101ec60048036038101906101e79190612a67565b610751565b6040516101f99190612aa1565b60405180910390f35b34801561020d575f80fd5b5061022860048036038101906102239190612aba565b61076c565b005b348015610235575f80fd5b50610250600480360381019061024b9190612af8565b610782565b005b34801561025d575f80fd5b5061027860048036038101906102739190612af8565b610881565b005b610294600480360381019061028f9190612be6565b6108a0565b005b3480156102a1575f80fd5b506102aa6108bf565b6040516102b79190612c58565b60405180910390f35b3480156102cb575f80fd5b506102e660048036038101906102e19190612a67565b6108f0565b6040516102f39190612aa1565b60405180910390f35b348015610307575f80fd5b50610322600480360381019061031d9190612c71565b610901565b60405161032f9190612cab565b60405180910390f35b348015610343575f80fd5b5061034c6109c5565b005b348015610359575f80fd5b506103626109d8565b60405161036f9190612cab565b60405180910390f35b348015610383575f80fd5b5061038c6109dd565b6040516103999190612aa1565b60405180910390f35b3480156103ad575f80fd5b506103b6610a12565b6040516103c39190612806565b60405180910390f35b3480156103d7575f80fd5b506103f260048036038101906103ed9190612cee565b610ab0565b005b3480156103ff575f80fd5b50610408610ac6565b6040516104159190612806565b60405180910390f35b348015610429575f80fd5b50610444600480360381019061043f9190612d2c565b610aff565b005b348015610451575f80fd5b5061046c60048036038101906104679190612a67565b610b24565b6040516104799190612806565b60405180910390f35b34801561048d575f80fd5b506104a860048036038101906104a39190612dac565b610b36565b005b3480156104b5575f80fd5b506104d060048036038101906104cb9190612e06565b610b6f565b6040516104dd9190612763565b60405180910390f35b3480156104f1575f80fd5b5061050c60048036038101906105079190612c71565b610c0b565b005b5f61051882610c8f565b9050919050565b60605f61052a610cef565b9050805f01805461053a90612e71565b80601f016020809104026020016040519081016040528092919081815260200182805461056690612e71565b80156105b15780601f10610588576101008083540402835291602001916105b1565b820191905f5260205f20905b81548152906001019060200180831161059457829003601f168201915b505050505091505090565b5f6105c5610d16565b90505f815f0160089054906101000a900460ff161590505f825f015f9054906101000a900467ffffffffffffffff1690505f808267ffffffffffffffff1614801561060d5750825b90505f60018367ffffffffffffffff1614801561064057505f3073ffffffffffffffffffffffffffffffffffffffff163b145b90508115801561064e575080155b15610685576040517ff92ee8a900000000000000000000000000000000000000000000000000000000815260040160405180910390fd5b6001855f015f6101000a81548167ffffffffffffffff021916908367ffffffffffffffff16021790555083156106d2576001855f0160086101000a81548160ff0219169083151502179055505b6106dc8888610d29565b6106e4610d3f565b6106ed86610d49565b8315610747575f855f0160086101000a81548160ff0219169083151502179055507fc7f505b2f371ae2175ee4913f4499e1f2633a7b5936321eed1cdaeb6115181d2600160405161073e9190612ef6565b60405180910390a15b5050505050505050565b5f61075b82610d5d565b5061076582610de3565b9050919050565b61077e8282610779610e2a565b610e31565b5050565b5f73ffffffffffffffffffffffffffffffffffffffff168273ffffffffffffffffffffffffffffffffffffffff16036107f2575f6040517f64a0ae920000000000000000000000000000000000000000000000000000000081526004016107e99190612aa1565b60405180910390fd5b5f6108058383610800610e2a565b610e43565b90508373ffffffffffffffffffffffffffffffffffffffff168173ffffffffffffffffffffffffffffffffffffffff161461087b578382826040517f64283d7b00000000000000000000000000000000000000000000000000000000815260040161087293929190612f0f565b60405180910390fd5b50505050565b61089b83838360405180602001604052805f815250610aff565b505050565b6108a8611060565b6108b182611146565b6108bb8282611151565b5050565b5f6108c861126f565b7f360894a13ba1a3210667c828492db98dca3e2076cc3735a920a3ca505d382bbc5f1b905090565b5f6108fa82610d5d565b9050919050565b5f8061090b610cef565b90505f73ffffffffffffffffffffffffffffffffffffffff168373ffffffffffffffffffffffffffffffffffffffff160361097d575f6040517f89c62b640000000000000000000000000000000000000000000000000000000081526004016109749190612aa1565b60405180910390fd5b806003015f8473ffffffffffffffffffffffffffffffffffffffff1673ffffffffffffffffffffffffffffffffffffffff1681526020019081526020015f2054915050919050565b6109cd6112f6565b6109d65f61137d565b565b5f5481565b5f806109e761144e565b9050805f015f9054906101000a900473ffffffffffffffffffffffffffffffffffffffff1691505090565b60605f610a1d610cef565b9050806001018054610a2e90612e71565b80601f0160208091040260200160405190810160405280929190818152602001828054610a5a90612e71565b8015610aa55780601f10610a7c57610100808354040283529160200191610aa5565b820191905f5260205f20905b815481529060010190602001808311610a8857829003601f168201915b505050505091505090565b610ac2610abb610e2a565b8383611475565b5050565b6040518060400160405280600581526020017f352e302e3000000000000000000000000000000000000000000000000000000081525081565b610b0a848484610782565b610b1e610b15610e2a565b8585858561165c565b50505050565b6060610b2f82611808565b9050919050565b610b3e6112f6565b5f805f815480929190610b5090612f71565b919050559050610b608382611884565b610b6a81836118a1565b505050565b5f80610b79610cef565b9050806005015f8573ffffffffffffffffffffffffffffffffffffffff1673ffffffffffffffffffffffffffffffffffffffff1681526020019081526020015f205f8473ffffffffffffffffffffffffffffffffffffffff1673ffffffffffffffffffffffffffffffffffffffff1681526020019081526020015f205f9054906101000a900460ff1691505092915050565b610c136112f6565b5f73ffffffffffffffffffffffffffffffffffffffff168173ffffffffffffffffffffffffffffffffffffffff1603610c83575f6040517f1e4fbdf7000000000000000000000000000000000000000000000000000000008152600401610c7a9190612aa1565b60405180910390fd5b610c8c8161137d565b50565b5f634906490660e01b7bffffffffffffffffffffffffffffffffffffffffffffffffffffffff1916827bffffffffffffffffffffffffffffffffffffffffffffffffffffffff19161480610ce85750610ce782611908565b5b9050919050565b5f7f80bb2b638cc20bc4d0a60d66940f3ab4a00c1d7b313497ca82fb0b4ab0079300905090565b5f80610d206119e9565b90508091505090565b610d31611a12565b610d3b8282611a52565b5050565b610d47611a12565b565b610d51611a12565b610d5a81611a8d565b50565b5f80610d6883611b11565b90505f73ffffffffffffffffffffffffffffffffffffffff168173ffffffffffffffffffffffffffffffffffffffff1603610dda57826040517f7e273289000000000000000000000000000000000000000000000000000000008152600401610dd19190612cab565b60405180910390fd5b80915050919050565b5f80610ded610cef565b9050806004015f8481526020019081526020015f205f9054906101000a900473ffffffffffffffffffffffffffffffffffffffff16915050919050565b5f33905090565b610e3e8383836001611b58565b505050565b5f80610e4d610cef565b90505f610e5985611b11565b90505f73ffffffffffffffffffffffffffffffffffffffff168473ffffffffffffffffffffffffffffffffffffffff1614610e9a57610e99818587611d25565b5b5f73ffffffffffffffffffffffffffffffffffffffff168173ffffffffffffffffffffffffffffffffffffffff1614610f2757610ed95f865f80611b58565b6001826003015f8373ffffffffffffffffffffffffffffffffffffffff1673ffffffffffffffffffffffffffffffffffffffff1681526020019081526020015f205f82825403925050819055505b5f73ffffffffffffffffffffffffffffffffffffffff168673ffffffffffffffffffffffffffffffffffffffff1614610fa8576001826003015f8873ffffffffffffffffffffffffffffffffffffffff1673ffffffffffffffffffffffffffffffffffffffff1681526020019081526020015f205f82825401925050819055505b85826002015f8781526020019081526020015f205f6101000a81548173ffffffffffffffffffffffffffffffffffffffff021916908373ffffffffffffffffffffffffffffffffffffffff160217905550848673ffffffffffffffffffffffffffffffffffffffff168273ffffffffffffffffffffffffffffffffffffffff167fddf252ad1be2c89b69c2b068fc378daa952ba7f163c4a11628f55a4df523b3ef60405160405180910390a480925050509392505050565b7f000000000000000000000000000000000000000000000000000000000000000073ffffffffffffffffffffffffffffffffffffffff163073ffffffffffffffffffffffffffffffffffffffff16148061110d57507f000000000000000000000000000000000000000000000000000000000000000073ffffffffffffffffffffffffffffffffffffffff166110f4611de8565b73ffffffffffffffffffffffffffffffffffffffff1614155b15611144576040517fe07c8dba00000000000000000000000000000000000000000000000000000000815260040160405180910390fd5b565b61114e6112f6565b50565b8173ffffffffffffffffffffffffffffffffffffffff166352d1902d6040518163ffffffff1660e01b8152600401602060405180830381865afa9250505080156111b957506040513d601f19601f820116820180604052508101906111b69190612fe2565b60015b6111fa57816040517f4c9c8ce30000000000000000000000000000000000000000000000000000000081526004016111f19190612aa1565b60405180910390fd5b7f360894a13ba1a3210667c828492db98dca3e2076cc3735a920a3ca505d382bbc5f1b811461126057806040517faa1d49a40000000000000000000000000000000000000000000000000000000081526004016112579190612c58565b60405180910390fd5b61126a8383611e3b565b505050565b7f000000000000000000000000000000000000000000000000000000000000000073ffffffffffffffffffffffffffffffffffffffff163073ffffffffffffffffffffffffffffffffffffffff16146112f4576040517fe07c8dba00000000000000000000000000000000000000000000000000000000815260040160405180910390fd5b565b6112fe610e2a565b73ffffffffffffffffffffffffffffffffffffffff1661131c6109dd565b73ffffffffffffffffffffffffffffffffffffffff161461137b5761133f610e2a565b6040517f118cdaa70000000000000000000000000000000000000000000000000000000081526004016113729190612aa1565b60405180910390fd5b565b5f61138661144e565b90505f815f015f9054906101000a900473ffffffffffffffffffffffffffffffffffffffff16905082825f015f6101000a81548173ffffffffffffffffffffffffffffffffffffffff021916908373ffffffffffffffffffffffffffffffffffffffff1602179055508273ffffffffffffffffffffffffffffffffffffffff168173ffffffffffffffffffffffffffffffffffffffff167f8be0079c531659141344cd1fd0a4f28419497f9722a3daafe3b4186f6b6457e060405160405180910390a3505050565b5f7f9016d09d72d40fdae2fd8ceac6b6234c7706214fd39c1cd1e609a0528c199300905090565b5f61147e610cef565b90505f73ffffffffffffffffffffffffffffffffffffffff168473ffffffffffffffffffffffffffffffffffffffff16036114f0575f6040517fa9fbf51f0000000000000000000000000000000000000000000000000000000081526004016114e79190612aa1565b60405180910390fd5b5f73ffffffffffffffffffffffffffffffffffffffff168373ffffffffffffffffffffffffffffffffffffffff160361156057826040517f5b08ba180000000000000000000000000000000000000000000000000000000081526004016115579190612aa1565b60405180910390fd5b81816005015f8673ffffffffffffffffffffffffffffffffffffffff1673ffffffffffffffffffffffffffffffffffffffff1681526020019081526020015f205f8573ffffffffffffffffffffffffffffffffffffffff1673ffffffffffffffffffffffffffffffffffffffff1681526020019081526020015f205f6101000a81548160ff0219169083151502179055508273ffffffffffffffffffffffffffffffffffffffff168473ffffffffffffffffffffffffffffffffffffffff167f17307eab39ab6107e8899845ad3d59bd9653f200f220920489ca2b5937696c318460405161164e9190612763565b60405180910390a350505050565b5f8373ffffffffffffffffffffffffffffffffffffffff163b1115611801578273ffffffffffffffffffffffffffffffffffffffff1663150b7a02868685856040518563ffffffff1660e01b81526004016116ba949392919061305f565b6020604051808303815f875af19250505080156116f557506040513d601f19601f820116820180604052508101906116f291906130bd565b60015b611776573d805f8114611723576040519150601f19603f3d011682016040523d82523d5f602084013e611728565b606091505b505f81510361176e57836040517f64a0ae920000000000000000000000000000000000000000000000000000000081526004016117659190612aa1565b60405180910390fd5b805160208201fd5b63150b7a0260e01b7bffffffffffffffffffffffffffffffffffffffffffffffffffffffff1916817bffffffffffffffffffffffffffffffffffffffffffffffffffffffff1916146117ff57836040517f64a0ae920000000000000000000000000000000000000000000000000000000081526004016117f69190612aa1565b60405180910390fd5b505b5050505050565b606061181382610d5d565b505f61181d611ead565b90505f61182984611ec3565b90505f82510361183d57809250505061187f565b5f81511115611871578181604051602001611859929190613122565b6040516020818303038152906040529250505061187f565b61187a84611f71565b925050505b919050565b61189d828260405180602001604052805f815250611fd7565b5050565b5f6118aa611ffa565b905081815f015f8581526020019081526020015f2090816118cb91906132d9565b507ff8e1a15aba9398e019f0b49df1a4fde98ee17ae345cb5f6b5e2c27f5033e8ce7836040516118fb9190612cab565b60405180910390a1505050565b5f7f80ac58cd000000000000000000000000000000000000000000000000000000007bffffffffffffffffffffffffffffffffffffffffffffffffffffffff1916827bffffffffffffffffffffffffffffffffffffffffffffffffffffffff191614806119d257507f5b5e139f000000000000000000000000000000000000000000000000000000007bffffffffffffffffffffffffffffffffffffffffffffffffffffffff1916827bffffffffffffffffffffffffffffffffffffffffffffffffffffffff1916145b806119e257506119e182612021565b5b9050919050565b5f7ff0c57e16840df040f15088dc2f81fe391c3923bec73e23a9662efc9c229c6a005f1b905090565b611a1a61208a565b611a50576040517fd7e6bcf800000000000000000000000000000000000000000000000000000000815260040160405180910390fd5b565b611a5a611a12565b5f611a63610cef565b905082815f019081611a7591906132d9565b5081816001019081611a8791906132d9565b50505050565b611a95611a12565b5f73ffffffffffffffffffffffffffffffffffffffff168173ffffffffffffffffffffffffffffffffffffffff1603611b05575f6040517f1e4fbdf7000000000000000000000000000000000000000000000000000000008152600401611afc9190612aa1565b60405180910390fd5b611b0e8161137d565b50565b5f80611b1b610cef565b9050806002015f8481526020019081526020015f205f9054906101000a900473ffffffffffffffffffffffffffffffffffffffff16915050919050565b5f611b61610cef565b90508180611b9b57505f73ffffffffffffffffffffffffffffffffffffffff168373ffffffffffffffffffffffffffffffffffffffff1614155b15611ccd575f611baa85610d5d565b90505f73ffffffffffffffffffffffffffffffffffffffff168473ffffffffffffffffffffffffffffffffffffffff1614158015611c1457508373ffffffffffffffffffffffffffffffffffffffff168173ffffffffffffffffffffffffffffffffffffffff1614155b8015611c275750611c258185610b6f565b155b15611c6957836040517fa9fbf51f000000000000000000000000000000000000000000000000000000008152600401611c609190612aa1565b60405180910390fd5b8215611ccb57848673ffffffffffffffffffffffffffffffffffffffff168273ffffffffffffffffffffffffffffffffffffffff167f8c5be1e5ebec7d5bd14f71427d1e84f3dd0314c0f7b2291e5b200ac8c7c3b92560405160405180910390a45b505b84816004015f8681526020019081526020015f205f6101000a81548173ffffffffffffffffffffffffffffffffffffffff021916908373ffffffffffffffffffffffffffffffffffffffff1602179055505050505050565b611d308383836120a8565b611de3575f73ffffffffffffffffffffffffffffffffffffffff168373ffffffffffffffffffffffffffffffffffffffff1603611da457806040517f7e273289000000000000000000000000000000000000000000000000000000008152600401611d9b9190612cab565b60405180910390fd5b81816040517f177e802f000000000000000000000000000000000000000000000000000000008152600401611dda9291906133a8565b60405180910390fd5b505050565b5f611e147f360894a13ba1a3210667c828492db98dca3e2076cc3735a920a3ca505d382bbc5f1b612168565b5f015f9054906101000a900473ffffffffffffffffffffffffffffffffffffffff16905090565b611e4482612171565b8173ffffffffffffffffffffffffffffffffffffffff167fbc7cd75a20ee27fd9adebab32041f755214dbc6bffa90cc0225b39da2e5c2d3b60405160405180910390a25f81511115611ea057611e9a828261223a565b50611ea9565b611ea861232b565b5b5050565b606060405180602001604052805f815250905090565b60605f611ece611ffa565b9050805f015f8481526020019081526020015f208054611eed90612e71565b80601f0160208091040260200160405190810160405280929190818152602001828054611f1990612e71565b8015611f645780601f10611f3b57610100808354040283529160200191611f64565b820191905f5260205f20905b815481529060010190602001808311611f4757829003601f168201915b5050505050915050919050565b6060611f7c82610d5d565b505f611f86611ead565b90505f815111611fa45760405180602001604052805f815250611fcf565b80611fae84612367565b604051602001611fbf929190613122565b6040516020818303038152906040525b915050919050565b611fe18383612431565b611ff5611fec610e2a565b5f85858561165c565b505050565b5f7f0542a41881ee128a365a727b282c86fa859579490b9bb45aab8503648c8e7900905090565b5f7f01ffc9a7000000000000000000000000000000000000000000000000000000007bffffffffffffffffffffffffffffffffffffffffffffffffffffffff1916827bffffffffffffffffffffffffffffffffffffffffffffffffffffffff1916149050919050565b5f612093610d16565b5f0160089054906101000a900460ff16905090565b5f8073ffffffffffffffffffffffffffffffffffffffff168373ffffffffffffffffffffffffffffffffffffffff161415801561215f57508273ffffffffffffffffffffffffffffffffffffffff168473ffffffffffffffffffffffffffffffffffffffff161480612120575061211f8484610b6f565b5b8061215e57508273ffffffffffffffffffffffffffffffffffffffff1661214683610de3565b73ffffffffffffffffffffffffffffffffffffffff16145b5b90509392505050565b5f819050919050565b5f8173ffffffffffffffffffffffffffffffffffffffff163b036121cc57806040517f4c9c8ce30000000000000000000000000000000000000000000000000000000081526004016121c39190612aa1565b60405180910390fd5b806121f87f360894a13ba1a3210667c828492db98dca3e2076cc3735a920a3ca505d382bbc5f1b612168565b5f015f6101000a81548173ffffffffffffffffffffffffffffffffffffffff021916908373ffffffffffffffffffffffffffffffffffffffff16021790555050565b60605f6122478484612524565b905080801561227d57505f61225a612538565b118061227c57505f8473ffffffffffffffffffffffffffffffffffffffff163b115b5b156122925761228a61253f565b915050612325565b80156122d557836040517f9996b3150000000000000000000000000000000000000000000000000000000081526004016122cc9190612aa1565b60405180910390fd5b5f6122de612538565b11156122f1576122ec61255c565b612323565b6040517fd6bda27500000000000000000000000000000000000000000000000000000000815260040160405180910390fd5b505b92915050565b5f341115612365576040517fb398979f00000000000000000000000000000000000000000000000000000000815260040160405180910390fd5b565b60605f600161237584612567565b0190505f8167ffffffffffffffff8111156123935761239261282e565b5b6040519080825280601f01601f1916602001820160405280156123c55781602001600182028036833780820191505090505b5090505f82602083010190505b600115612426578080600190039150507f3031323334353637383961626364656600000000000000000000000000000000600a86061a8153600a858161241b5761241a6133cf565b5b0494505f85036123d2575b819350505050919050565b5f73ffffffffffffffffffffffffffffffffffffffff168273ffffffffffffffffffffffffffffffffffffffff16036124a1575f6040517f64a0ae920000000000000000000000000000000000000000000000000000000081526004016124989190612aa1565b60405180910390fd5b5f6124ad83835f610e43565b90505f73ffffffffffffffffffffffffffffffffffffffff168173ffffffffffffffffffffffffffffffffffffffff161461251f575f6040517f73c6ac6e0000000000000000000000000000000000000000000000000000000081526004016125169190612aa1565b60405180910390fd5b505050565b5f805f835160208501865af4905092915050565b5f3d905090565b606060405190503d81523d5f602083013e3d602001810160405290565b6040513d5f823e3d81fd5b5f805f90507a184f03e93ff9f4daa797ed6e38ed64bf6a1f01000000000000000083106125c3577a184f03e93ff9f4daa797ed6e38ed64bf6a1f01000000000000000083816125b9576125b86133cf565b5b0492506040810190505b6d04ee2d6d415b85acef81000000008310612600576d04ee2d6d415b85acef810000000083816125f6576125f56133cf565b5b0492506020810190505b662386f26fc10000831061262f57662386f26fc100008381612625576126246133cf565b5b0492506010810190505b6305f5e1008310612658576305f5e100838161264e5761264d6133cf565b5b0492506008810190505b612710831061267d576127108381612673576126726133cf565b5b0492506004810190505b606483106126a05760648381612696576126956133cf565b5b0492506002810190505b600a83106126af576001810190505b80915050919050565b5f604051905090565b5f80fd5b5f80fd5b5f7fffffffff0000000000000000000000000000000000000000000000000000000082169050919050565b6126fd816126c9565b8114612707575f80fd5b50565b5f81359050612718816126f4565b92915050565b5f60208284031215612733576127326126c1565b5b5f6127408482850161270a565b91505092915050565b5f8115159050919050565b61275d81612749565b82525050565b5f6020820190506127765f830184612754565b92915050565b5f81519050919050565b5f82825260208201905092915050565b5f5b838110156127b3578082015181840152602081019050612798565b5f8484015250505050565b5f601f19601f8301169050919050565b5f6127d88261277c565b6127e28185612786565b93506127f2818560208601612796565b6127fb816127be565b840191505092915050565b5f6020820190508181035f83015261281e81846127ce565b905092915050565b5f80fd5b5f80fd5b7f4e487b71000000000000000000000000000000000000000000000000000000005f52604160045260245ffd5b612864826127be565b810181811067ffffffffffffffff821117156128835761288261282e565b5b80604052505050565b5f6128956126b8565b90506128a1828261285b565b919050565b5f67ffffffffffffffff8211156128c0576128bf61282e565b5b6128c9826127be565b9050602081019050919050565b828183375f83830152505050565b5f6128f66128f1846128a6565b61288c565b9050828152602081018484840111156129125761291161282a565b5b61291d8482856128d6565b509392505050565b5f82601f83011261293957612938612826565b5b81356129498482602086016128e4565b91505092915050565b5f73ffffffffffffffffffffffffffffffffffffffff82169050919050565b5f61297b82612952565b9050919050565b61298b81612971565b8114612995575f80fd5b50565b5f813590506129a681612982565b92915050565b5f805f606084860312156129c3576129c26126c1565b5b5f84013567ffffffffffffffff8111156129e0576129df6126c5565b5b6129ec86828701612925565b935050602084013567ffffffffffffffff811115612a0d57612a0c6126c5565b5b612a1986828701612925565b9250506040612a2a86828701612998565b9150509250925092565b5f819050919050565b612a4681612a34565b8114612a50575f80fd5b50565b5f81359050612a6181612a3d565b92915050565b5f60208284031215612a7c57612a7b6126c1565b5b5f612a8984828501612a53565b91505092915050565b612a9b81612971565b82525050565b5f602082019050612ab45f830184612a92565b92915050565b5f8060408385031215612ad057612acf6126c1565b5b5f612add85828601612998565b9250506020612aee85828601612a53565b9150509250929050565b5f805f60608486031215612b0f57612b0e6126c1565b5b5f612b1c86828701612998565b9350506020612b2d86828701612998565b9250506040612b3e86828701612a53565b9150509250925092565b5f67ffffffffffffffff821115612b6257612b6161282e565b5b612b6b826127be565b9050602081019050919050565b5f612b8a612b8584612b48565b61288c565b905082815260208101848484011115612ba657612ba561282a565b5b612bb18482856128d6565b509392505050565b5f82601f830112612bcd57612bcc612826565b5b8135612bdd848260208601612b78565b91505092915050565b5f8060408385031215612bfc57612bfb6126c1565b5b5f612c0985828601612998565b925050602083013567ffffffffffffffff811115612c2a57612c296126c5565b5b612c3685828601612bb9565b9150509250929050565b5f819050919050565b612c5281612c40565b82525050565b5f602082019050612c6b5f830184612c49565b92915050565b5f60208284031215612c8657612c856126c1565b5b5f612c9384828501612998565b91505092915050565b612ca581612a34565b82525050565b5f602082019050612cbe5f830184612c9c565b92915050565b612ccd81612749565b8114612cd7575f80fd5b50565b5f81359050612ce881612cc4565b92915050565b5f8060408385031215612d0457612d036126c1565b5b5f612d1185828601612998565b9250506020612d2285828601612cda565b9150509250929050565b5f805f8060808587031215612d4457612d436126c1565b5b5f612d5187828801612998565b9450506020612d6287828801612998565b9350506040612d7387828801612a53565b925050606085013567ffffffffffffffff811115612d9457612d936126c5565b5b612da087828801612bb9565b91505092959194509250565b5f8060408385031215612dc257612dc16126c1565b5b5f612dcf85828601612998565b925050602083013567ffffffffffffffff811115612df057612def6126c5565b5b612dfc85828601612925565b9150509250929050565b5f8060408385031215612e1c57612e1b6126c1565b5b5f612e2985828601612998565b9250506020612e3a85828601612998565b9150509250929050565b7f4e487b71000000000000000000000000000000000000000000000000000000005f52602260045260245ffd5b5f6002820490506001821680612e8857607f821691505b602082108103612e9b57612e9a612e44565b5b50919050565b5f819050919050565b5f67ffffffffffffffff82169050919050565b5f819050919050565b5f612ee0612edb612ed684612ea1565b612ebd565b612eaa565b9050919050565b612ef081612ec6565b82525050565b5f602082019050612f095f830184612ee7565b92915050565b5f606082019050612f225f830186612a92565b612f2f6020830185612c9c565b612f3c6040830184612a92565b949350505050565b7f4e487b71000000000000000000000000000000000000000000000000000000005f52601160045260245ffd5b5f612f7b82612a34565b91507fffffffffffffffffffffffffffffffffffffffffffffffffffffffffffffffff8203612fad57612fac612f44565b5b600182019050919050565b612fc181612c40565b8114612fcb575f80fd5b50565b5f81519050612fdc81612fb8565b92915050565b5f60208284031215612ff757612ff66126c1565b5b5f61300484828501612fce565b91505092915050565b5f81519050919050565b5f82825260208201905092915050565b5f6130318261300d565b61303b8185613017565b935061304b818560208601612796565b613054816127be565b840191505092915050565b5f6080820190506130725f830187612a92565b61307f6020830186612a92565b61308c6040830185612c9c565b818103606083015261309e8184613027565b905095945050505050565b5f815190506130b7816126f4565b92915050565b5f602082840312156130d2576130d16126c1565b5b5f6130df848285016130a9565b91505092915050565b5f81905092915050565b5f6130fc8261277c565b61310681856130e8565b9350613116818560208601612796565b80840191505092915050565b5f61312d82856130f2565b915061313982846130f2565b91508190509392505050565b5f819050815f5260205f209050919050565b5f6020601f8301049050919050565b5f82821b905092915050565b5f600883026131a17fffffffffffffffffffffffffffffffffffffffffffffffffffffffffffffffff82613166565b6131ab8683613166565b95508019841693508086168417925050509392505050565b5f6131dd6131d86131d384612a34565b612ebd565b612a34565b9050919050565b5f819050919050565b6131f6836131c3565b61320a613202826131e4565b848454613172565b825550505050565b5f90565b61321e613212565b6132298184846131ed565b505050565b5b8181101561324c576132415f82613216565b60018101905061322f565b5050565b601f8211156132915761326281613145565b61326b84613157565b8101602085101561327a578190505b61328e61328685613157565b83018261322e565b50505b505050565b5f82821c905092915050565b5f6132b15f1984600802613296565b1980831691505092915050565b5f6132c983836132a2565b9150826002028217905092915050565b6132e28261277c565b67ffffffffffffffff8111156132fb576132fa61282e565b5b6133058254612e71565b613310828285613250565b5f60209050601f831160018114613341575f841561332f578287015190505b61333985826132be565b8655506133a0565b601f19841661334f86613145565b5f5b8281101561337657848901518255600182019150602085019450602081019050613351565b86831015613393578489015161338f601f8916826132a2565b8355505b6001600288020188555050505b505050505050565b5f6040820190506133bb5f830185612a92565b6133c86020830184612c9c565b9392505050565b7f4e487b71000000000000000000000000000000000000000000000000000000005f52601260045260245ffdfea26469706673582212206718a2b0931d80f17eba9c07b92b8a6fde11c3af981f0d1cbbe01b357ccf606164736f6c63430008180033",
  "linkReferences": {},
  "deployedLinkReferences": {}
}